{"abi":[{"type":"constructor","inputs":[{"name":"_usdcToken","type":"address","internalType":"address"}],"stateMutability":"nonpayable"},{"type":"function","name":"allContentIds","inputs":[{"name":"","type":"uint256","internalType":"uint256"}],"outputs":[{"name":"","type":"uint256","internalType":"uint256"}],"stateMutability":"view"},{"type":"function","name":"allCreators","inputs":[{"name":"","type":"uint256","internalType":"uint256"}],"outputs":[{"name":"","type":"address","internalType":"address"}],"stateMutability":"view"},{"type":"function","name":"allVideos","inputs":[{"name":"","type":"uint256","internalType":"uint256"}],"outputs":[{"name":"title","type":"string","internalType":"string"},{"name":"videoCID","type":"string","internalType":"string"},{"name":"thumbnailCID","type":"string","internalType":"string"},{"name":"uploader","type":"address","internalType":"address"},{"name":"timestamp","type":"uint256","internalType":"uint256"}],"stateMutability":"view"},{"type":"function","name":"buyContent","inputs":[{"name":"_contentId","type":"uint256","internalType":"uint256"}],"outputs":[],"stateMutability":"payable"},{"type":"function","name":"checkAccess","inputs":[{"name":"_user","type":"address","internalType":"address"},{"name":"_contentId","type":"uint256","internalType":"uint256"}],"outputs":[{"name":"","type":"bool","internalType":"bool"}],"stateMutability":"view"},{"type":"function","name":"checkPurchase","inputs":[{"name":"_user","type":"address","internalType":"address"},{"name":"_contentId","type":"uint256","internalType":"uint256"}],"outputs":[{"name":"","type":"bool","internalType":"bool"}],"stateMutability":"view"},{"type":"function","name":"checkRental","inputs":[{"name":"_user","type":"address","internalType":"address"},{"name":"_contentId","type":"uint256","internalType":"uint256"}],"outputs":[{"name":"","type":"bool","internalType":"bool"}],"stateMutability":"view"},{"type":"function","name":"checkSubscription","inputs":[{"name":"_subscriber","type":"address","internalType":"address"},{"name":"_creator","type":"address","internalType":"address"}],"outputs":[{"name":"","type":"bool","internalType":"bool"}],"stateMutability":"view"},{"type":"function","name":"contents","inputs":[{"name":"","type":"uint256","internalType":"uint256"}],"outputs":[{"name":"id","type":"uint256","internalType":"uint256"},{"name":"creatorAddress","type":"address","internalType":"address"},{"name":"cType","type":"uint8","internalType":"enum CreatorHub.ContentType"},{"name":"metadataURI","type":"string","internalType":"string"},{"name":"isFree","type":"bool","internalType":"bool"},{"name":"fullPrice","type":"uint256","internalType":"uint256"},{"name":"rentedPrice","type":"uint256","internalType":"uint256"},{"name":"paymentToken","type":"address","internalType":"address"},{"name":"active","type":"bool","internalType":"bool"}],"stateMutability":"view"},{"type":"function","name":"createContent","inputs":[{"name":"cType","type":"uint8","internalType":"enum CreatorHub.ContentType"},{"name":"metadataURI","type":"string","internalType":"string"},{"name":"isFree","type":"bool","internalType":"bool"},{"name":"fullPrice","type":"uint256","internalType":"uint256"},{"name":"rentedPrice","type":"uint256","internalType":"uint256"},{"name":"paymentToken","type":"address","internalType":"address"}],"outputs":[{"name":"","type":"uint256","internalType":"uint256"}],"stateMutability":"nonpayable"},{"type":"function","name":"cret","inputs":[{"name":"","type":"address","internalType":"address"}],"outputs":[{"name":"name","type":"string","internalType":"string"},{"name":"wallet","type":"address","internalType":"address"},{"name":"isRegistered","type":"bool","internalType":"bool"},{"name":"subscriptionPrice","type":"uint256","internalType":"uint256"},{"name":"subscriberCount","type":"uint256","internalType":"uint256"},{"name":"totalEarnings","type":"uint256","internalType":"uint256"}],"stateMutability":"view"},{"type":"function","name":"getAllCreators","inputs":[],"outputs":[{"name":"","type":"tuple[]","internalType":"struct CreatorHub.Creator[]","components":[{"name":"name","type":"string","internalType":"string"},{"name":"wallet","type":"address","internalType":"address"},{"name":"isRegistered","type":"bool","internalType":"bool"},{"name":"subscriptionPrice","type":"uint256","internalType":"uint256"},{"name":"subscriberCount","type":"uint256","internalType":"uint256"},{"name":"totalEarnings","type":"uint256","internalType":"uint256"}]}],"stateMutability":"view"},{"type":"function","name":"getChannelName","inputs":[{"name":"_wallet","type":"address","internalType":"address"}],"outputs":[{"name":"","type":"string","internalType":"string"}],"stateMutability":"view"},{"type":"function","name":"getLatestContent","inputs":[{"name":"_limit","type":"uint256","internalType":"uint256"}],"outputs":[{"name":"","type":"tuple[]","internalType":"struct CreatorHub.Content[]","components":[{"name":"id","type":"uint256","internalType":"uint256"},{"name":"creatorAddress","type":"address","internalType":"address"},{"name":"cType","type":"uint8","internalType":"enum CreatorHub.ContentType"},{"name":"metadataURI","type":"string","internalType":"string"},{"name":"isFree","type":"bool","internalType":"bool"},{"name":"fullPrice","type":"uint256","internalType":"uint256"},{"name":"rentedPrice","type":"uint256","internalType":"uint256"},{"name":"paymentToken","type":"address","internalType":"address"},{"name":"active","type":"bool","internalType":"bool"}]}],"stateMutability":"view"},{"type":"function","name":"getLatestVideos","inputs":[{"name":"_limit","type":"uint256","internalType":"uint256"}],"outputs":[{"name":"","type":"tuple[]","internalType":"struct CreatorHub.Video[]","components":[{"name":"title","type":"string","internalType":"string"},{"name":"videoCID","type":"string","internalType":"string"},{"name":"thumbnailCID","type":"string","internalType":"string"},{"name":"uploader","type":"address","internalType":"address"},{"name":"timestamp","type":"uint256","internalType":"uint256"}]}],"stateMutability":"view"},{"type":"function","name":"nextContentId","inputs":[],"outputs":[{"name":"","type":"uint256","internalType":"uint256"}],"stateMutability":"view"},{"type":"function","name":"purchases","inputs":[{"name":"","type":"address","internalType":"address"},{"name":"","type":"uint256","internalType":"uint256"}],"outputs":[{"name":"","type":"bool","internalType":"bool"}],"stateMutability":"view"},{"type":"function","name":"registerChannel","inputs":[{"name":"_name","type":"string","internalType":"string"}],"outputs":[],"stateMutability":"nonpayable"},{"type":"function","name":"rentContent","inputs":[{"name":"_contentId","type":"uint256","internalType":"uint256"}],"outputs":[],"stateMutability":"payable"},{"type":"function","name":"rentals","inputs":[{"name":"","type":"address","internalType":"address"},{"name":"","type":"uint256","internalType":"uint256"}],"outputs":[{"name":"","type":"uint256","internalType":"uint256"}],"stateMutability":"view"},{"type":"function","name":"setContentActive","inputs":[{"name":"contentId","type":"uint256","internalType":"uint256"},{"name":"status","type":"bool","internalType":"bool"}],"outputs":[],"stateMutability":"nonpayable"},{"type":"function","name":"setSubscriptionPrice","inputs":[{"name":"_price","type":"uint256","internalType":"uint256"}],"outputs":[],"stateMutability":"nonpayable"},{"type":"function","name":"subscribe","inputs":[{"name":"_creator","type":"address","internalType":"address"}],"outputs":[],"stateMutability":"nonpayable"},{"type":"function","name":"subscriptions","inputs":[{"name":"","type":"address","internalType":"address"},{"name":"","type":"address","internalType":"address"}],"outputs":[{"name":"","type":"uint256","internalType":"uint256"}],"stateMutability":"view"},{"type":"function","name":"updateContent","inputs":[{"name":"contentId","type":"uint256","internalType":"uint256"},{"name":"cType","type":"uint8","internalType":"enum CreatorHub.ContentType"},{"name":"metadataURI","type":"string","internalType":"string"},{"name":"fullPrice","type":"uint256","internalType":"uint256"},{"name":"rentedPrice","type":"uint256","internalType":"uint256"},{"name":"paymentToken","type":"address","internalType":"address"},{"name":"isFree","type":"bool","internalType":"bool"}],"outputs":[],"stateMutability":"nonpayable"},{"type":"function","name":"uploadVideo","inputs":[{"name":"_title","type":"string","internalType":"string"},{"name":"_videoCID","type":"string","internalType":"string"},{"name":"_thumbnailCID","type":"string","internalType":"string"}],"outputs":[],"stateMutability":"nonpayable"},{"type":"function","name":"usdcToken","inputs":[],"outputs":[{"name":"","type":"address","internalType":"address"}],"stateMutability":"view"},{"type":"event","name":"ChannelRegistered","inputs":[{"name":"wallet","type":"address","indexed":true,"internalType":"address"},{"name":"name","type":"string","indexed":false,"internalType":"string"}],"anonymous":false},{"type":"event","name":"ContentCreated","inputs":[{"name":"contentId","type":"uint256","indexed":true,"internalType":"uint256"},{"name":"creator","type":"address","indexed":true,"internalType":"address"},{"name":"metadataURI","type":"string","indexed":false,"internalType":"string"}],"anonymous":false},{"type":"event","name":"ContentPurchased","inputs":[{"name":"buyer","type":"address","indexed":true,"internalType":"address"},{"name":"contentId","type":"uint256","indexed":true,"internalType":"uint256"}],"anonymous":false},{"type":"event","name":"ContentRented","inputs":[{"name":"renter","type":"address","indexed":true,"internalType":"address"},{"name":"contentId","type":"uint256","indexed":true,"internalType":"uint256"},{"name":"expiry","type":"uint256","indexed":false,"internalType":"uint256"}],"anonymous":false},{"type":"event","name":"Subscribed","inputs":[{"name":"subscriber","type":"address","indexed":true,"internalType":"address"},{"name":"creator","type":"address","indexed":true,"internalType":"address"},{"name":"expiry","type":"uint256","indexed":false,"internalType":"uint256"}],"anonymous":false},{"type":"event","name":"SubscriptionPriceUpdated","inputs":[{"name":"creator","type":"address","indexed":true,"internalType":"address"},{"name":"newPrice","type":"uint256","indexed":false,"internalType":"uint256"}],"anonymous":false},{"type":"event","name":"VideoUploaded","inputs":[{"name":"videoId","type":"uint256","indexed":true,"internalType":"uint256"},{"name":"uploader","type":"address","indexed":true,"internalType":"address"},{"name":"title","type":"string","indexed":false,"internalType":"string"}],"anonymous":false}],"bytecode":{"object":"0x608060405234801561000f575f5ffd5b506040516151b83803806151b8833981810160405281019061003191906100d5565b8060095f6101000a81548173ffffffffffffffffffffffffffffffffffffffff021916908373ffffffffffffffffffffffffffffffffffffffff16021790555050610100565b5f5ffd5b5f73ffffffffffffffffffffffffffffffffffffffff82169050919050565b5f6100a48261007b565b9050919050565b6100b48161009a565b81146100be575f5ffd5b50565b5f815190506100cf816100ab565b92915050565b5f602082840312156100ea576100e9610077565b5b5f6100f7848285016100c1565b91505092915050565b6150ab8061010d5f395ff3fe60806040526004361061019b575f3560e01c806366bce961116100eb578063acaebbf611610089578063e457291911610063578063e457291914610648578063e5805fe014610688578063ead02347146106b0578063f97fac4d146106ec5761019b565b8063acaebbf6146105ac578063b5ecf912146105e8578063d6cfa4401461062c5761019b565b80638799bd74116100c55780638799bd74146104bc578063888e5d9e146104f85780638f6247b414610534578063aba6d14b146105705761019b565b806366bce9611461041c5780637d556e75146104585780637eb67c31146104805761019b565b80632881f092116101585780634875e9fd116101325780634875e9fd1461033b5780635093ab6d1461036357806352d3f849146103a45780636207d31b146103e05761019b565b80632881f092146102af5780632d58d0ee146102eb57806341a7726a146103135761019b565b8063055b52ec1461019f578063090fc58b146101bb5780630a248d7f146101f75780630ca6c2f41461022157806311eac8551461025d5780631a5ee77914610287575b5f5ffd5b6101b960048036038101906101b49190613647565b610716565b005b3480156101c6575f5ffd5b506101e160048036038101906101dc91906136cc565b610cd8565b6040516101ee9190613719565b60405180910390f35b348015610202575f5ffd5b5061020b610cf8565b6040516102189190613719565b60405180910390f35b34801561022c575f5ffd5b5061024760048036038101906102429190613647565b610cfe565b6040516102549190613719565b60405180910390f35b348015610268575f5ffd5b50610271610d1e565b60405161027e9190613741565b60405180910390f35b348015610292575f5ffd5b506102ad60048036038101906102a89190613647565b610d43565b005b3480156102ba575f5ffd5b506102d560048036038101906102d091906136cc565b610e64565b6040516102e29190613774565b60405180910390f35b3480156102f6575f5ffd5b50610311600480360381019061030c91906138c9565b610ebc565b005b34801561031e575f5ffd5b5061033960048036038101906103349190613910565b61115d565b005b348015610346575f5ffd5b50610361600480360381019061035c919061393b565b61154b565b005b34801561036e575f5ffd5b5061038960048036038101906103849190613910565b611738565b60405161039b96959493929190613a3f565b60405180910390f35b3480156103af575f5ffd5b506103ca60048036038101906103c591906136cc565b611821565b6040516103d79190613774565b60405180910390f35b3480156103eb575f5ffd5b5061040660048036038101906104019190613aa5565b61184b565b6040516104139190613719565b60405180910390f35b348015610427575f5ffd5b50610442600480360381019061043d91906136cc565b61186b565b60405161044f9190613774565b60405180910390f35b348015610463575f5ffd5b5061047e60048036038101906104799190613b0d565b6118cd565b005b34801561048b575f5ffd5b506104a660048036038101906104a19190613910565b611a24565b6040516104b39190613b4b565b60405180910390f35b3480156104c7575f5ffd5b506104e260048036038101906104dd9190613647565b611b82565b6040516104ef9190613d0d565b60405180910390f35b348015610503575f5ffd5b5061051e60048036038101906105199190613647565b611eec565b60405161052b9190613741565b60405180910390f35b34801561053f575f5ffd5b5061055a600480360381019061055591906136cc565b611f27565b6040516105679190613774565b60405180910390f35b34801561057b575f5ffd5b5061059660048036038101906105919190613d50565b611fdf565b6040516105a39190613719565b60405180910390f35b3480156105b7575f5ffd5b506105d260048036038101906105cd9190613647565b6123a0565b6040516105df9190613ff4565b60405180910390f35b3480156105f3575f5ffd5b5061060e60048036038101906106099190613647565b6126d6565b60405161062399989796959493929190614023565b60405180910390f35b61064660048036038101906106419190613647565b61280a565b005b348015610653575f5ffd5b5061066e60048036038101906106699190613647565b612dc1565b60405161067f9594939291906140b5565b60405180910390f35b348015610693575f5ffd5b506106ae60048036038101906106a9919061411b565b612fb3565b005b3480156106bb575f5ffd5b506106d660048036038101906106d19190613aa5565b61322b565b6040516106e39190613774565b60405180910390f35b3480156106f7575f5ffd5b506107006132af565b60405161070d9190614315565b60405180910390f35b5f60065f8381526020019081526020015f20604051806101200160405290815f8201548152602001600182015f9054906101000a900473ffffffffffffffffffffffffffffffffffffffff1673ffffffffffffffffffffffffffffffffffffffff1673ffffffffffffffffffffffffffffffffffffffff1681526020016001820160149054906101000a900460ff1660058111156107b7576107b6613e1e565b5b60058111156107c9576107c8613e1e565b5b81526020016002820180546107dd90614362565b80601f016020809104026020016040519081016040528092919081815260200182805461080990614362565b80156108545780601f1061082b57610100808354040283529160200191610854565b820191905f5260205f20905b81548152906001019060200180831161083757829003601f168201915b50505050508152602001600382015f9054906101000a900460ff161515151581526020016004820154815260200160058201548152602001600682015f9054906101000a900473ffffffffffffffffffffffffffffffffffffffff1673ffffffffffffffffffffffffffffffffffffffff1673ffffffffffffffffffffffffffffffffffffffff1681526020016006820160149054906101000a900460ff1615151515815250509050806101000151610942576040517f08c379a0000000000000000000000000000000000000000000000000000000008152600401610939906143dc565b60405180910390fd5b5f8160c0015111610988576040517f08c379a000000000000000000000000000000000000000000000000000000000815260040161097f90614444565b60405180910390fd5b5f73ffffffffffffffffffffffffffffffffffffffff168160e0015173ffffffffffffffffffffffffffffffffffffffff1603610b11578060c00151341015610a06576040517f08c379a00000000000000000000000000000000000000000000000000000000081526004016109fd906144ac565b60405180910390fd5b5f816020015173ffffffffffffffffffffffffffffffffffffffff1634604051610a2f906144f7565b5f6040518083038185875af1925050503d805f8114610a69576040519150601f19603f3d011682016040523d82523d5f602084013e610a6e565b606091505b5050905080610ab2576040517f08c379a0000000000000000000000000000000000000000000000000000000008152600401610aa990614555565b60405180910390fd5b345f5f846020015173ffffffffffffffffffffffffffffffffffffffff1673ffffffffffffffffffffffffffffffffffffffff1681526020019081526020015f206004015f828254610b0491906145a0565b9250508190555050610c21565b5f3414610b53576040517f08c379a0000000000000000000000000000000000000000000000000000000008152600401610b4a9061461d565b60405180910390fd5b5f8160e0015190508073ffffffffffffffffffffffffffffffffffffffff166323b872dd3384602001518560c001516040518463ffffffff1660e01b8152600401610ba09392919061463b565b6020604051808303815f875af1158015610bbc573d5f5f3e3d5ffd5b505050506040513d601f19601f82011682018060405250810190610be09190614684565b610c1f576040517f08c379a0000000000000000000000000000000000000000000000000000000008152600401610c16906146f9565b60405180910390fd5b505b5f6201518042610c3191906145a0565b90508060025f3373ffffffffffffffffffffffffffffffffffffffff1673ffffffffffffffffffffffffffffffffffffffff1681526020019081526020015f205f8581526020019081526020015f2081905550823373ffffffffffffffffffffffffffffffffffffffff167f911cffde7f97da1028a296f1650c29ea2ff658aeffaefd8f401ff640f818712583604051610ccb9190613719565b60405180910390a3505050565b6002602052815f5260405f20602052805f5260405f205f91509150505481565b60055481565b60078181548110610d0d575f80fd5b905f5260205f20015f915090505481565b60095f9054906101000a900473ffffffffffffffffffffffffffffffffffffffff1681565b5f5f3373ffffffffffffffffffffffffffffffffffffffff1673ffffffffffffffffffffffffffffffffffffffff1681526020019081526020015f2060010160149054906101000a900460ff16610dcf576040517f08c379a0000000000000000000000000000000000000000000000000000000008152600401610dc690614761565b60405180910390fd5b805f5f3373ffffffffffffffffffffffffffffffffffffffff1673ffffffffffffffffffffffffffffffffffffffff1681526020019081526020015f20600201819055503373ffffffffffffffffffffffffffffffffffffffff167fb7f535c0f6a33f444bce1a5c432bbeef81b30471d8b193828baf43ef2b18708382604051610e599190613719565b60405180910390a250565b5f4260025f8573ffffffffffffffffffffffffffffffffffffffff1673ffffffffffffffffffffffffffffffffffffffff1681526020019081526020015f205f8481526020019081526020015f205411905092915050565b5f815111610eff576040517f08c379a0000000000000000000000000000000000000000000000000000000008152600401610ef6906147c9565b60405180910390fd5b5f5f3373ffffffffffffffffffffffffffffffffffffffff1673ffffffffffffffffffffffffffffffffffffffff1681526020019081526020015f2060010160149054906101000a900460ff1615610f8c576040517f08c379a0000000000000000000000000000000000000000000000000000000008152600401610f8390614831565b60405180910390fd5b6040518060c001604052808281526020013373ffffffffffffffffffffffffffffffffffffffff168152602001600115158152602001624c4b4081526020015f81526020015f8152505f5f3373ffffffffffffffffffffffffffffffffffffffff1673ffffffffffffffffffffffffffffffffffffffff1681526020019081526020015f205f820151815f01908161102491906149ef565b506020820151816001015f6101000a81548173ffffffffffffffffffffffffffffffffffffffff021916908373ffffffffffffffffffffffffffffffffffffffff16021790555060408201518160010160146101000a81548160ff021916908315150217905550606082015181600201556080820151816003015560a08201518160040155905050600833908060018154018082558091505060019003905f5260205f20015f9091909190916101000a81548173ffffffffffffffffffffffffffffffffffffffff021916908373ffffffffffffffffffffffffffffffffffffffff1602179055503373ffffffffffffffffffffffffffffffffffffffff167f276ae62e19d992282d28a4512c2330337f38c431d6cb0a190266eb7899ffb14b826040516111529190613b4b565b60405180910390a250565b5f5f8273ffffffffffffffffffffffffffffffffffffffff1673ffffffffffffffffffffffffffffffffffffffff1681526020019081526020015f2060010160149054906101000a900460ff166111e9576040517f08c379a00000000000000000000000000000000000000000000000000000000081526004016111e090614b08565b60405180910390fd5b5f5f5f8373ffffffffffffffffffffffffffffffffffffffff1673ffffffffffffffffffffffffffffffffffffffff1681526020019081526020015f206002015490505f811161126e576040517f08c379a000000000000000000000000000000000000000000000000000000000815260040161126590614b70565b60405180910390fd5b5f60015f3373ffffffffffffffffffffffffffffffffffffffff1673ffffffffffffffffffffffffffffffffffffffff1681526020019081526020015f205f8473ffffffffffffffffffffffffffffffffffffffff1673ffffffffffffffffffffffffffffffffffffffff1681526020019081526020015f205490505f428211156113095762278d008261130291906145a0565b905061131b565b62278d004261131891906145a0565b90505b8060015f3373ffffffffffffffffffffffffffffffffffffffff1673ffffffffffffffffffffffffffffffffffffffff1681526020019081526020015f205f8673ffffffffffffffffffffffffffffffffffffffff1673ffffffffffffffffffffffffffffffffffffffff1681526020019081526020015f208190555060095f9054906101000a900473ffffffffffffffffffffffffffffffffffffffff1673ffffffffffffffffffffffffffffffffffffffff166323b872dd3386866040518463ffffffff1660e01b81526004016113f69392919061463b565b6020604051808303815f875af1158015611412573d5f5f3e3d5ffd5b505050506040513d601f19601f820116820180604052508101906114369190614684565b505f5f8573ffffffffffffffffffffffffffffffffffffffff1673ffffffffffffffffffffffffffffffffffffffff1681526020019081526020015f206003015f81548092919061148690614b8e565b9190505550825f5f8673ffffffffffffffffffffffffffffffffffffffff1673ffffffffffffffffffffffffffffffffffffffff1681526020019081526020015f206004015f8282546114d991906145a0565b925050819055508373ffffffffffffffffffffffffffffffffffffffff163373ffffffffffffffffffffffffffffffffffffffff167f1299b0ad0a8e7c2403716ae6507195ba96bd8cac7f49d8c129e18f9ae51374f08360405161153d9190613719565b60405180910390a350505050565b5f5f3373ffffffffffffffffffffffffffffffffffffffff1673ffffffffffffffffffffffffffffffffffffffff1681526020019081526020015f2060010160149054906101000a900460ff166115d7576040517f08c379a00000000000000000000000000000000000000000000000000000000081526004016115ce90614c1f565b60405180910390fd5b5f6040518060a001604052808581526020018481526020018381526020013373ffffffffffffffffffffffffffffffffffffffff168152602001428152509050600481908060018154018082558091505060019003905f5260205f2090600502015f909190919091505f820151815f01908161165391906149ef565b50602082015181600101908161166991906149ef565b50604082015181600201908161167f91906149ef565b506060820151816003015f6101000a81548173ffffffffffffffffffffffffffffffffffffffff021916908373ffffffffffffffffffffffffffffffffffffffff1602179055506080820151816004015550503373ffffffffffffffffffffffffffffffffffffffff1660016004805490506116fb9190614c3d565b7f914131121ce37b9b876b9e7ff21f008ec2799db04096a542b4b7e67f80af1d138660405161172a9190613b4b565b60405180910390a350505050565b5f602052805f5260405f205f91509050805f01805461175690614362565b80601f016020809104026020016040519081016040528092919081815260200182805461178290614362565b80156117cd5780601f106117a4576101008083540402835291602001916117cd565b820191905f5260205f20905b8154815290600101906020018083116117b057829003601f168201915b505050505090806001015f9054906101000a900473ffffffffffffffffffffffffffffffffffffffff16908060010160149054906101000a900460ff16908060020154908060030154908060040154905086565b6003602052815f5260405f20602052805f5260405f205f915091509054906101000a900460ff1681565b6001602052815f5260405f20602052805f5260405f205f91509150505481565b5f60035f8473ffffffffffffffffffffffffffffffffffffffff1673ffffffffffffffffffffffffffffffffffffffff1681526020019081526020015f205f8381526020019081526020015f205f9054906101000a900460ff16905092915050565b5f60065f8481526020019081526020015f2090505f73ffffffffffffffffffffffffffffffffffffffff16816001015f9054906101000a900473ffffffffffffffffffffffffffffffffffffffff1673ffffffffffffffffffffffffffffffffffffffff1603611972576040517f08c379a000000000000000000000000000000000000000000000000000000000815260040161196990614cba565b60405180910390fd5b3373ffffffffffffffffffffffffffffffffffffffff16816001015f9054906101000a900473ffffffffffffffffffffffffffffffffffffffff1673ffffffffffffffffffffffffffffffffffffffff1614611a03576040517f08c379a00000000000000000000000000000000000000000000000000000000081526004016119fa90614d48565b60405180910390fd5b818160060160146101000a81548160ff021916908315150217905550505050565b60605f5f8373ffffffffffffffffffffffffffffffffffffffff1673ffffffffffffffffffffffffffffffffffffffff1681526020019081526020015f2060010160149054906101000a900460ff1615611b44575f5f8373ffffffffffffffffffffffffffffffffffffffff1673ffffffffffffffffffffffffffffffffffffffff1681526020019081526020015f205f018054611ac190614362565b80601f0160208091040260200160405190810160405280929190818152602001828054611aed90614362565b8015611b385780601f10611b0f57610100808354040283529160200191611b38565b820191905f5260205f20905b815481529060010190602001808311611b1b57829003601f168201915b50505050509050611b7d565b6040518060400160405280600f81526020017f556e6b6e6f776e204368616e6e656c000000000000000000000000000000000081525090505b919050565b60605f60048054905090505f8103611bf0575f67ffffffffffffffff811115611bae57611bad6137a5565b5b604051908082528060200260200182016040528015611be757816020015b611bd46134f1565b815260200190600190039081611bcc5790505b50915050611ee7565b5f83905081811115611c00578190505b5f8167ffffffffffffffff811115611c1b57611c1a6137a5565b5b604051908082528060200260200182016040528015611c5457816020015b611c416134f1565b815260200190600190039081611c395790505b5090505f5f90505b82811015611edf57600481600186611c749190614c3d565b611c7e9190614c3d565b81548110611c8f57611c8e614d66565b5b905f5260205f2090600502016040518060a00160405290815f82018054611cb590614362565b80601f0160208091040260200160405190810160405280929190818152602001828054611ce190614362565b8015611d2c5780601f10611d0357610100808354040283529160200191611d2c565b820191905f5260205f20905b815481529060010190602001808311611d0f57829003601f168201915b50505050508152602001600182018054611d4590614362565b80601f0160208091040260200160405190810160405280929190818152602001828054611d7190614362565b8015611dbc5780601f10611d9357610100808354040283529160200191611dbc565b820191905f5260205f20905b815481529060010190602001808311611d9f57829003601f168201915b50505050508152602001600282018054611dd590614362565b80601f0160208091040260200160405190810160405280929190818152602001828054611e0190614362565b8015611e4c5780601f10611e2357610100808354040283529160200191611e4c565b820191905f5260205f20905b815481529060010190602001808311611e2f57829003601f168201915b50505050508152602001600382015f9054906101000a900473ffffffffffffffffffffffffffffffffffffffff1673ffffffffffffffffffffffffffffffffffffffff1673ffffffffffffffffffffffffffffffffffffffff168152602001600482015481525050828281518110611ec757611ec6614d66565b5b60200260200101819052508080600101915050611c5c565b508093505050505b919050565b60088181548110611efb575f80fd5b905f5260205f20015f915054906101000a900473ffffffffffffffffffffffffffffffffffffffff1681565b5f60035f8473ffffffffffffffffffffffffffffffffffffffff1673ffffffffffffffffffffffffffffffffffffffff1681526020019081526020015f205f8381526020019081526020015f205f9054906101000a900460ff1680611fd757504260025f8573ffffffffffffffffffffffffffffffffffffffff1673ffffffffffffffffffffffffffffffffffffffff1681526020019081526020015f205f8481526020019081526020015f2054115b905092915050565b5f5f5f3373ffffffffffffffffffffffffffffffffffffffff1673ffffffffffffffffffffffffffffffffffffffff1681526020019081526020015f2060010160149054906101000a900460ff1661206c576040517f08c379a000000000000000000000000000000000000000000000000000000000815260040161206390614e03565b60405180910390fd5b5f8651116120af576040517f08c379a00000000000000000000000000000000000000000000000000000000081526004016120a690614e6b565b60405180910390fd5b841561213e575f84146120f7576040517f08c379a00000000000000000000000000000000000000000000000000000000081526004016120ee90614ed3565b60405180910390fd5b5f8314612139576040517f08c379a000000000000000000000000000000000000000000000000000000000815260040161213090614f61565b60405180910390fd5b61213f565b5b5f60055f81548092919061215290614b8e565b919050559050600781908060018154018082558091505060019003905f5260205f20015f90919091909150556040518061012001604052808281526020013373ffffffffffffffffffffffffffffffffffffffff1681526020018960058111156121bf576121be613e1e565b5b815260200188815260200187151581526020018681526020018581526020018473ffffffffffffffffffffffffffffffffffffffff1681526020016001151581525060065f8381526020019081526020015f205f820151815f01556020820151816001015f6101000a81548173ffffffffffffffffffffffffffffffffffffffff021916908373ffffffffffffffffffffffffffffffffffffffff16021790555060408201518160010160146101000a81548160ff0219169083600581111561228b5761228a613e1e565b5b021790555060608201518160020190816122a591906149ef565b506080820151816003015f6101000a81548160ff02191690831515021790555060a0820151816004015560c0820151816005015560e0820151816006015f6101000a81548173ffffffffffffffffffffffffffffffffffffffff021916908373ffffffffffffffffffffffffffffffffffffffff1602179055506101008201518160060160146101000a81548160ff0219169083151502179055509050503373ffffffffffffffffffffffffffffffffffffffff16817fbacf9f620fd10df5b39931f2a3012e753be545aba5d7642b9bdb59b527709f1d8960405161238a9190613b4b565b60405180910390a3809150509695505050505050565b60605f60078054905090505f810361240e575f67ffffffffffffffff8111156123cc576123cb6137a5565b5b60405190808252806020026020018201604052801561240557816020015b6123f2613534565b8152602001906001900390816123ea5790505b509150506126d1565b5f8390508181111561241e578190505b5f8167ffffffffffffffff811115612439576124386137a5565b5b60405190808252806020026020018201604052801561247257816020015b61245f613534565b8152602001906001900390816124575790505b5090505f5f90505b828110156126c9575f6007826001876124939190614c3d565b61249d9190614c3d565b815481106124ae576124ad614d66565b5b905f5260205f200154905060065f8281526020019081526020015f20604051806101200160405290815f8201548152602001600182015f9054906101000a900473ffffffffffffffffffffffffffffffffffffffff1673ffffffffffffffffffffffffffffffffffffffff1673ffffffffffffffffffffffffffffffffffffffff1681526020016001820160149054906101000a900460ff16600581111561255957612558613e1e565b5b600581111561256b5761256a613e1e565b5b815260200160028201805461257f90614362565b80601f01602080910402602001604051908101604052809291908181526020018280546125ab90614362565b80156125f65780601f106125cd576101008083540402835291602001916125f6565b820191905f5260205f20905b8154815290600101906020018083116125d957829003601f168201915b50505050508152602001600382015f9054906101000a900460ff161515151581526020016004820154815260200160058201548152602001600682015f9054906101000a900473ffffffffffffffffffffffffffffffffffffffff1673ffffffffffffffffffffffffffffffffffffffff1673ffffffffffffffffffffffffffffffffffffffff1681526020016006820160149054906101000a900460ff1615151515815250508383815181106126b0576126af614d66565b5b602002602001018190525050808060010191505061247a565b508093505050505b919050565b6006602052805f5260405f205f91509050805f015490806001015f9054906101000a900473ffffffffffffffffffffffffffffffffffffffff16908060010160149054906101000a900460ff169080600201805461273390614362565b80601f016020809104026020016040519081016040528092919081815260200182805461275f90614362565b80156127aa5780601f10612781576101008083540402835291602001916127aa565b820191905f5260205f20905b81548152906001019060200180831161278d57829003601f168201915b505050505090806003015f9054906101000a900460ff1690806004015490806005015490806006015f9054906101000a900473ffffffffffffffffffffffffffffffffffffffff16908060060160149054906101000a900460ff16905089565b5f60065f8381526020019081526020015f20604051806101200160405290815f8201548152602001600182015f9054906101000a900473ffffffffffffffffffffffffffffffffffffffff1673ffffffffffffffffffffffffffffffffffffffff1673ffffffffffffffffffffffffffffffffffffffff1681526020016001820160149054906101000a900460ff1660058111156128ab576128aa613e1e565b5b60058111156128bd576128bc613e1e565b5b81526020016002820180546128d190614362565b80601f01602080910402602001604051908101604052809291908181526020018280546128fd90614362565b80156129485780601f1061291f57610100808354040283529160200191612948565b820191905f5260205f20905b81548152906001019060200180831161292b57829003601f168201915b50505050508152602001600382015f9054906101000a900460ff161515151581526020016004820154815260200160058201548152602001600682015f9054906101000a900473ffffffffffffffffffffffffffffffffffffffff1673ffffffffffffffffffffffffffffffffffffffff1673ffffffffffffffffffffffffffffffffffffffff1681526020016006820160149054906101000a900460ff1615151515815250509050806101000151612a36576040517f08c379a0000000000000000000000000000000000000000000000000000000008152600401612a2d906143dc565b60405180910390fd5b5f8160a0015111612a7c576040517f08c379a0000000000000000000000000000000000000000000000000000000008152600401612a7390614fc9565b60405180910390fd5b5f73ffffffffffffffffffffffffffffffffffffffff168160e0015173ffffffffffffffffffffffffffffffffffffffff1603612c05578060a00151341015612afa576040517f08c379a0000000000000000000000000000000000000000000000000000000008152600401612af1906144ac565b60405180910390fd5b5f816020015173ffffffffffffffffffffffffffffffffffffffff1634604051612b23906144f7565b5f6040518083038185875af1925050503d805f8114612b5d576040519150601f19603f3d011682016040523d82523d5f602084013e612b62565b606091505b5050905080612ba6576040517f08c379a0000000000000000000000000000000000000000000000000000000008152600401612b9d90614555565b60405180910390fd5b345f5f846020015173ffffffffffffffffffffffffffffffffffffffff1673ffffffffffffffffffffffffffffffffffffffff1681526020019081526020015f206004015f828254612bf891906145a0565b9250508190555050612d15565b5f3414612c47576040517f08c379a0000000000000000000000000000000000000000000000000000000008152600401612c3e9061461d565b60405180910390fd5b5f8160e0015190508073ffffffffffffffffffffffffffffffffffffffff166323b872dd3384602001518560a001516040518463ffffffff1660e01b8152600401612c949392919061463b565b6020604051808303815f875af1158015612cb0573d5f5f3e3d5ffd5b505050506040513d601f19601f82011682018060405250810190612cd49190614684565b612d13576040517f08c379a0000000000000000000000000000000000000000000000000000000008152600401612d0a906146f9565b60405180910390fd5b505b600160035f3373ffffffffffffffffffffffffffffffffffffffff1673ffffffffffffffffffffffffffffffffffffffff1681526020019081526020015f205f8481526020019081526020015f205f6101000a81548160ff021916908315150217905550813373ffffffffffffffffffffffffffffffffffffffff167f78fa7f9bb99ebb3dafd5e552ccffce01fa03d2736f14539d1c3e60f191dde14760405160405180910390a35050565b60048181548110612dd0575f80fd5b905f5260205f2090600502015f91509050805f018054612def90614362565b80601f0160208091040260200160405190810160405280929190818152602001828054612e1b90614362565b8015612e665780601f10612e3d57610100808354040283529160200191612e66565b820191905f5260205f20905b815481529060010190602001808311612e4957829003601f168201915b505050505090806001018054612e7b90614362565b80601f0160208091040260200160405190810160405280929190818152602001828054612ea790614362565b8015612ef25780601f10612ec957610100808354040283529160200191612ef2565b820191905f5260205f20905b815481529060010190602001808311612ed557829003601f168201915b505050505090806002018054612f0790614362565b80601f0160208091040260200160405190810160405280929190818152602001828054612f3390614362565b8015612f7e5780601f10612f5557610100808354040283529160200191612f7e565b820191905f5260205f20905b815481529060010190602001808311612f6157829003601f168201915b505050505090806003015f9054906101000a900473ffffffffffffffffffffffffffffffffffffffff16908060040154905085565b5f60065f8981526020019081526020015f2090505f73ffffffffffffffffffffffffffffffffffffffff16816001015f9054906101000a900473ffffffffffffffffffffffffffffffffffffffff1673ffffffffffffffffffffffffffffffffffffffff1603613058576040517f08c379a000000000000000000000000000000000000000000000000000000000815260040161304f90614cba565b60405180910390fd5b3373ffffffffffffffffffffffffffffffffffffffff16816001015f9054906101000a900473ffffffffffffffffffffffffffffffffffffffff1673ffffffffffffffffffffffffffffffffffffffff16146130e9576040517f08c379a00000000000000000000000000000000000000000000000000000000081526004016130e090615057565b60405180910390fd5b8115613174575f8514613131576040517f08c379a000000000000000000000000000000000000000000000000000000000815260040161312890614ed3565b60405180910390fd5b5f8414613173576040517f08c379a000000000000000000000000000000000000000000000000000000000815260040161316a90614f61565b60405180910390fd5b5b868160010160146101000a81548160ff0219169083600581111561319b5761319a613e1e565b5b0217905550858160020190816131b191906149ef565b5081816003015f6101000a81548160ff02191690831515021790555084816004018190555083816005018190555082816006015f6101000a81548173ffffffffffffffffffffffffffffffffffffffff021916908373ffffffffffffffffffffffffffffffffffffffff1602179055505050505050505050565b5f4260015f8573ffffffffffffffffffffffffffffffffffffffff1673ffffffffffffffffffffffffffffffffffffffff1681526020019081526020015f205f8473ffffffffffffffffffffffffffffffffffffffff1673ffffffffffffffffffffffffffffffffffffffff1681526020019081526020015f205411905092915050565b60605f60088054905090505f8167ffffffffffffffff8111156132d5576132d46137a5565b5b60405190808252806020026020018201604052801561330e57816020015b6132fb6135ba565b8152602001906001900390816132f35790505b5090505f5f90505b828110156134e8575f5f6008838154811061333457613333614d66565b5b905f5260205f20015f9054906101000a900473ffffffffffffffffffffffffffffffffffffffff1673ffffffffffffffffffffffffffffffffffffffff1673ffffffffffffffffffffffffffffffffffffffff1681526020019081526020015f206040518060c00160405290815f820180546133af90614362565b80601f01602080910402602001604051908101604052809291908181526020018280546133db90614362565b80156134265780601f106133fd57610100808354040283529160200191613426565b820191905f5260205f20905b81548152906001019060200180831161340957829003601f168201915b50505050508152602001600182015f9054906101000a900473ffffffffffffffffffffffffffffffffffffffff1673ffffffffffffffffffffffffffffffffffffffff1673ffffffffffffffffffffffffffffffffffffffff1681526020016001820160149054906101000a900460ff1615151515815260200160028201548152602001600382015481526020016004820154815250508282815181106134d0576134cf614d66565b5b60200260200101819052508080600101915050613316565b50809250505090565b6040518060a001604052806060815260200160608152602001606081526020015f73ffffffffffffffffffffffffffffffffffffffff1681526020015f81525090565b6040518061012001604052805f81526020015f73ffffffffffffffffffffffffffffffffffffffff1681526020015f600581111561357557613574613e1e565b5b8152602001606081526020015f151581526020015f81526020015f81526020015f73ffffffffffffffffffffffffffffffffffffffff1681526020015f151581525090565b6040518060c00160405280606081526020015f73ffffffffffffffffffffffffffffffffffffffff1681526020015f151581526020015f81526020015f81526020015f81525090565b5f604051905090565b5f5ffd5b5f5ffd5b5f819050919050565b61362681613614565b8114613630575f5ffd5b50565b5f813590506136418161361d565b92915050565b5f6020828403121561365c5761365b61360c565b5b5f61366984828501613633565b91505092915050565b5f73ffffffffffffffffffffffffffffffffffffffff82169050919050565b5f61369b82613672565b9050919050565b6136ab81613691565b81146136b5575f5ffd5b50565b5f813590506136c6816136a2565b92915050565b5f5f604083850312156136e2576136e161360c565b5b5f6136ef858286016136b8565b925050602061370085828601613633565b9150509250929050565b61371381613614565b82525050565b5f60208201905061372c5f83018461370a565b92915050565b61373b81613691565b82525050565b5f6020820190506137545f830184613732565b92915050565b5f8115159050919050565b61376e8161375a565b82525050565b5f6020820190506137875f830184613765565b92915050565b5f5ffd5b5f5ffd5b5f601f19601f8301169050919050565b7f4e487b71000000000000000000000000000000000000000000000000000000005f52604160045260245ffd5b6137db82613795565b810181811067ffffffffffffffff821117156137fa576137f96137a5565b5b80604052505050565b5f61380c613603565b905061381882826137d2565b919050565b5f67ffffffffffffffff821115613837576138366137a5565b5b61384082613795565b9050602081019050919050565b828183375f83830152505050565b5f61386d6138688461381d565b613803565b90508281526020810184848401111561388957613888613791565b5b61389484828561384d565b509392505050565b5f82601f8301126138b0576138af61378d565b5b81356138c084826020860161385b565b91505092915050565b5f602082840312156138de576138dd61360c565b5b5f82013567ffffffffffffffff8111156138fb576138fa613610565b5b6139078482850161389c565b91505092915050565b5f602082840312156139255761392461360c565b5b5f613932848285016136b8565b91505092915050565b5f5f5f606084860312156139525761395161360c565b5b5f84013567ffffffffffffffff81111561396f5761396e613610565b5b61397b8682870161389c565b935050602084013567ffffffffffffffff81111561399c5761399b613610565b5b6139a88682870161389c565b925050604084013567ffffffffffffffff8111156139c9576139c8613610565b5b6139d58682870161389c565b9150509250925092565b5f81519050919050565b5f82825260208201905092915050565b8281835e5f83830152505050565b5f613a11826139df565b613a1b81856139e9565b9350613a2b8185602086016139f9565b613a3481613795565b840191505092915050565b5f60c0820190508181035f830152613a578189613a07565b9050613a666020830188613732565b613a736040830187613765565b613a80606083018661370a565b613a8d608083018561370a565b613a9a60a083018461370a565b979650505050505050565b5f5f60408385031215613abb57613aba61360c565b5b5f613ac8858286016136b8565b9250506020613ad9858286016136b8565b9150509250929050565b613aec8161375a565b8114613af6575f5ffd5b50565b5f81359050613b0781613ae3565b92915050565b5f5f60408385031215613b2357613b2261360c565b5b5f613b3085828601613633565b9250506020613b4185828601613af9565b9150509250929050565b5f6020820190508181035f830152613b638184613a07565b905092915050565b5f81519050919050565b5f82825260208201905092915050565b5f819050602082019050919050565b5f82825260208201905092915050565b5f613bae826139df565b613bb88185613b94565b9350613bc88185602086016139f9565b613bd181613795565b840191505092915050565b613be581613691565b82525050565b613bf481613614565b82525050565b5f60a083015f8301518482035f860152613c148282613ba4565b91505060208301518482036020860152613c2e8282613ba4565b91505060408301518482036040860152613c488282613ba4565b9150506060830151613c5d6060860182613bdc565b506080830151613c706080860182613beb565b508091505092915050565b5f613c868383613bfa565b905092915050565b5f602082019050919050565b5f613ca482613b6b565b613cae8185613b75565b935083602082028501613cc085613b85565b805f5b85811015613cfb5784840389528151613cdc8582613c7b565b9450613ce783613c8e565b925060208a01995050600181019050613cc3565b50829750879550505050505092915050565b5f6020820190508181035f830152613d258184613c9a565b905092915050565b60068110613d39575f5ffd5b50565b5f81359050613d4a81613d2d565b92915050565b5f5f5f5f5f5f60c08789031215613d6a57613d6961360c565b5b5f613d7789828a01613d3c565b965050602087013567ffffffffffffffff811115613d9857613d97613610565b5b613da489828a0161389c565b9550506040613db589828a01613af9565b9450506060613dc689828a01613633565b9350506080613dd789828a01613633565b92505060a0613de889828a016136b8565b9150509295509295509295565b5f81519050919050565b5f82825260208201905092915050565b5f819050602082019050919050565b7f4e487b71000000000000000000000000000000000000000000000000000000005f52602160045260245ffd5b60068110613e5c57613e5b613e1e565b5b50565b5f819050613e6c82613e4b565b919050565b5f613e7b82613e5f565b9050919050565b613e8b81613e71565b82525050565b613e9a8161375a565b82525050565b5f61012083015f830151613eb65f860182613beb565b506020830151613ec96020860182613bdc565b506040830151613edc6040860182613e82565b5060608301518482036060860152613ef48282613ba4565b9150506080830151613f096080860182613e91565b5060a0830151613f1c60a0860182613beb565b5060c0830151613f2f60c0860182613beb565b5060e0830151613f4260e0860182613bdc565b50610100830151613f57610100860182613e91565b508091505092915050565b5f613f6d8383613ea0565b905092915050565b5f602082019050919050565b5f613f8b82613df5565b613f958185613dff565b935083602082028501613fa785613e0f565b805f5b85811015613fe25784840389528151613fc38582613f62565b9450613fce83613f75565b925060208a01995050600181019050613faa565b50829750879550505050505092915050565b5f6020820190508181035f83015261400c8184613f81565b905092915050565b61401d81613e71565b82525050565b5f610120820190506140375f83018c61370a565b614044602083018b613732565b614051604083018a614014565b81810360608301526140638189613a07565b90506140726080830188613765565b61407f60a083018761370a565b61408c60c083018661370a565b61409960e0830185613732565b6140a7610100830184613765565b9a9950505050505050505050565b5f60a0820190508181035f8301526140cd8188613a07565b905081810360208301526140e18187613a07565b905081810360408301526140f58186613a07565b90506141046060830185613732565b614111608083018461370a565b9695505050505050565b5f5f5f5f5f5f5f60e0888a0312156141365761413561360c565b5b5f6141438a828b01613633565b97505060206141548a828b01613d3c565b965050604088013567ffffffffffffffff81111561417557614174613610565b5b6141818a828b0161389c565b95505060606141928a828b01613633565b94505060806141a38a828b01613633565b93505060a06141b48a828b016136b8565b92505060c06141c58a828b01613af9565b91505092959891949750929550565b5f81519050919050565b5f82825260208201905092915050565b5f819050602082019050919050565b5f60c083015f8301518482035f8601526142178282613ba4565b915050602083015161422c6020860182613bdc565b50604083015161423f6040860182613e91565b5060608301516142526060860182613beb565b5060808301516142656080860182613beb565b5060a083015161427860a0860182613beb565b508091505092915050565b5f61428e83836141fd565b905092915050565b5f602082019050919050565b5f6142ac826141d4565b6142b681856141de565b9350836020820285016142c8856141ee565b805f5b8581101561430357848403895281516142e48582614283565b94506142ef83614296565b925060208a019950506001810190506142cb565b50829750879550505050505092915050565b5f6020820190508181035f83015261432d81846142a2565b905092915050565b7f4e487b71000000000000000000000000000000000000000000000000000000005f52602260045260245ffd5b5f600282049050600182168061437957607f821691505b60208210810361438c5761438b614335565b5b50919050565b7f436f6e74656e74206e6f742061637469766500000000000000000000000000005f82015250565b5f6143c66012836139e9565b91506143d182614392565b602082019050919050565b5f6020820190508181035f8301526143f3816143ba565b9050919050565b7f436f6e74656e74206e6f7420666f722072656e740000000000000000000000005f82015250565b5f61442e6014836139e9565b9150614439826143fa565b602082019050919050565b5f6020820190508181035f83015261445b81614422565b9050919050565b7f496e73756666696369656e74207061796d656e740000000000000000000000005f82015250565b5f6144966014836139e9565b91506144a182614462565b602082019050919050565b5f6020820190508181035f8301526144c38161448a565b9050919050565b5f81905092915050565b50565b5f6144e25f836144ca565b91506144ed826144d4565b5f82019050919050565b5f614501826144d7565b9150819050919050565b7f4661696c656420746f2073656e642045746865720000000000000000000000005f82015250565b5f61453f6014836139e9565b915061454a8261450b565b602082019050919050565b5f6020820190508181035f83015261456c81614533565b9050919050565b7f4e487b71000000000000000000000000000000000000000000000000000000005f52601160045260245ffd5b5f6145aa82613614565b91506145b583613614565b92508282019050808211156145cd576145cc614573565b5b92915050565b7f446f6e27742073656e642045544820666f72204552433230207061796d656e745f82015250565b5f6146076020836139e9565b9150614612826145d3565b602082019050919050565b5f6020820190508181035f830152614634816145fb565b9050919050565b5f60608201905061464e5f830186613732565b61465b6020830185613732565b614668604083018461370a565b949350505050565b5f8151905061467e81613ae3565b92915050565b5f602082840312156146995761469861360c565b5b5f6146a684828501614670565b91505092915050565b7f4552433230207472616e73666572206661696c656400000000000000000000005f82015250565b5f6146e36015836139e9565b91506146ee826146af565b602082019050919050565b5f6020820190508181035f830152614710816146d7565b9050919050565b7f4e6f7420726567697374657265640000000000000000000000000000000000005f82015250565b5f61474b600e836139e9565b915061475682614717565b602082019050919050565b5f6020820190508181035f8301526147788161473f565b9050919050565b7f4e616d65207265717569726564000000000000000000000000000000000000005f82015250565b5f6147b3600d836139e9565b91506147be8261477f565b602082019050919050565b5f6020820190508181035f8301526147e0816147a7565b9050919050565b7f416c7265616479207265676973746572656400000000000000000000000000005f82015250565b5f61481b6012836139e9565b9150614826826147e7565b602082019050919050565b5f6020820190508181035f8301526148488161480f565b9050919050565b5f819050815f5260205f209050919050565b5f6020601f8301049050919050565b5f82821b905092915050565b5f600883026148ab7fffffffffffffffffffffffffffffffffffffffffffffffffffffffffffffffff82614870565b6148b58683614870565b95508019841693508086168417925050509392505050565b5f819050919050565b5f6148f06148eb6148e684613614565b6148cd565b613614565b9050919050565b5f819050919050565b614909836148d6565b61491d614915826148f7565b84845461487c565b825550505050565b5f5f905090565b614934614925565b61493f818484614900565b505050565b5b81811015614962576149575f8261492c565b600181019050614945565b5050565b601f8211156149a7576149788161484f565b61498184614861565b81016020851015614990578190505b6149a461499c85614861565b830182614944565b50505b505050565b5f82821c905092915050565b5f6149c75f19846008026149ac565b1980831691505092915050565b5f6149df83836149b8565b9150826002028217905092915050565b6149f8826139df565b67ffffffffffffffff811115614a1157614a106137a5565b5b614a1b8254614362565b614a26828285614966565b5f60209050601f831160018114614a57575f8415614a45578287015190505b614a4f85826149d4565b865550614ab6565b601f198416614a658661484f565b5f5b82811015614a8c57848901518255600182019150602085019450602081019050614a67565b86831015614aa95784890151614aa5601f8916826149b8565b8355505b6001600288020188555050505b505050505050565b7f43726561746f72206e6f742072656769737465726564000000000000000000005f82015250565b5f614af26016836139e9565b9150614afd82614abe565b602082019050919050565b5f6020820190508181035f830152614b1f81614ae6565b9050919050565b7f5072696365206d7573742062652067726561746572207468616e2030000000005f82015250565b5f614b5a601c836139e9565b9150614b6582614b26565b602082019050919050565b5f6020820190508181035f830152614b8781614b4e565b9050919050565b5f614b9882613614565b91507fffffffffffffffffffffffffffffffffffffffffffffffffffffffffffffffff8203614bca57614bc9614573565b5b600182019050919050565b7f4d757374207265676973746572206368616e6e656c20666972737400000000005f82015250565b5f614c09601b836139e9565b9150614c1482614bd5565b602082019050919050565b5f6020820190508181035f830152614c3681614bfd565b9050919050565b5f614c4782613614565b9150614c5283613614565b9250828203905081811115614c6a57614c69614573565b5b92915050565b7f436f6e74656e7420646f6573206e6f74206578697374000000000000000000005f82015250565b5f614ca46016836139e9565b9150614caf82614c70565b602082019050919050565b5f6020820190508181035f830152614cd181614c98565b9050919050565b7f4f6e6c792074686520636f6e74656e742063726561746f722063616e207570645f8201527f6174652069747320737461747573000000000000000000000000000000000000602082015250565b5f614d32602e836139e9565b9150614d3d82614cd8565b604082019050919050565b5f6020820190508181035f830152614d5f81614d26565b9050919050565b7f4e487b71000000000000000000000000000000000000000000000000000000005f52603260045260245ffd5b7f4f6e6c7920726567697374657265642063726561746f72732063616e206372655f8201527f61746520636f6e74656e74000000000000000000000000000000000000000000602082015250565b5f614ded602b836139e9565b9150614df882614d93565b604082019050919050565b5f6020820190508181035f830152614e1a81614de1565b9050919050565b7f496e76616c6964206d65746164617461555249000000000000000000000000005f82015250565b5f614e556013836139e9565b9150614e6082614e21565b602082019050919050565b5f6020820190508181035f830152614e8281614e49565b9050919050565b7f4672656520636f6e74656e742066756c6c5072696365206d75737420626520305f82015250565b5f614ebd6020836139e9565b9150614ec882614e89565b602082019050919050565b5f6020820190508181035f830152614eea81614eb1565b9050919050565b7f4672656520636f6e74656e742072656e7465645072696365206d7573742062655f8201527f2030000000000000000000000000000000000000000000000000000000000000602082015250565b5f614f4b6022836139e9565b9150614f5682614ef1565b604082019050919050565b5f6020820190508181035f830152614f7881614f3f565b9050919050565b7f436f6e74656e74206e6f7420666f722073616c650000000000000000000000005f82015250565b5f614fb36014836139e9565b9150614fbe82614f7f565b602082019050919050565b5f6020820190508181035f830152614fe081614fa7565b9050919050565b7f4f6e6c792074686520636f6e74656e742063726561746f722063616e207570645f8201527f6174650000000000000000000000000000000000000000000000000000000000602082015250565b5f6150416023836139e9565b915061504c82614fe7565b604082019050919050565b5f6020820190508181035f83015261506e81615035565b905091905056fea26469706673582212204b6e634d8fc09a4140e98478519cb7ae3064eaa64427e8927791f854286ba73764736f6c634300081e0033","linkReferences":{}},"methodIdentifiers":{"allContentIds(uint256)":"0ca6c2f4","allCreators(uint256)":"888e5d9e","allVideos(uint256)":"e4572919","buyContent(uint256)":"d6cfa440","checkAccess(address,uint256)":"8f6247b4","checkPurchase(address,uint256)":"66bce961","checkRental(address,uint256)":"2881f092","checkSubscription(address,address)":"ead02347","contents(uint256)":"b5ecf912","createContent(uint8,string,bool,uint256,uint256,address)":"aba6d14b","cret(address)":"5093ab6d","getAllCreators()":"f97fac4d","getChannelName(address)":"7eb67c31","getLatestContent(uint256)":"acaebbf6","getLatestVideos(uint256)":"8799bd74","nextContentId()":"0a248d7f","purchases(address,uint256)":"52d3f849","registerChannel(string)":"2d58d0ee","rentContent(uint256)":"055b52ec","rentals(address,uint256)":"090fc58b","setContentActive(uint256,bool)":"7d556e75","setSubscriptionPrice(uint256)":"1a5ee779","subscribe(address)":"41a7726a","subscriptions(address,address)":"6207d31b","updateContent(uint256,uint8,string,uint256,uint256,address,bool)":"e5805fe0","uploadVideo(string,string,string)":"4875e9fd","usdcToken()":"11eac855"},"id":20}