{"abi":[{"type":"constructor","inputs":[{"name":"_usdcToken","type":"address","internalType":"address"}],"stateMutability":"nonpayable"},{"type":"function","name":"allContentIds","inputs":[{"name":"","type":"uint256","internalType":"uint256"}],"outputs":[{"name":"","type":"uint256","internalType":"uint256"}],"stateMutability":"view"},{"type":"function","name":"allCreators","inputs":[{"name":"","type":"uint256","internalType":"uint256"}],"outputs":[{"name":"","type":"address","internalType":"address"}],"stateMutability":"view"},{"type":"function","name":"allVideos","inputs":[{"name":"","type":"uint256","internalType":"uint256"}],"outputs":[{"name":"title","type":"string","internalType":"string"},{"name":"videoCID","type":"string","internalType":"string"},{"name":"thumbnailCID","type":"string","internalType":"string"},{"name":"uploader","type":"address","internalType":"address"},{"name":"timestamp","type":"uint256","internalType":"uint256"}],"stateMutability":"view"},{"type":"function","name":"checkRental","inputs":[{"name":"_user","type":"address","internalType":"address"},{"name":"_contentId","type":"uint256","internalType":"uint256"}],"outputs":[{"name":"","type":"bool","internalType":"bool"}],"stateMutability":"view"},{"type":"function","name":"checkSubscription","inputs":[{"name":"_subscriber","type":"address","internalType":"address"},{"name":"_creator","type":"address","internalType":"address"}],"outputs":[{"name":"","type":"bool","internalType":"bool"}],"stateMutability":"view"},{"type":"function","name":"contents","inputs":[{"name":"","type":"uint256","internalType":"uint256"}],"outputs":[{"name":"id","type":"uint256","internalType":"uint256"},{"name":"creatorAddress","type":"address","internalType":"address"},{"name":"cType","type":"uint8","internalType":"enum CreatorHub.ContentType"},{"name":"metadataURI","type":"string","internalType":"string"},{"name":"isFree","type":"bool","internalType":"bool"},{"name":"fullPrice","type":"uint256","internalType":"uint256"},{"name":"rentedPrice","type":"uint256","internalType":"uint256"},{"name":"paymentToken","type":"address","internalType":"address"},{"name":"active","type":"bool","internalType":"bool"}],"stateMutability":"view"},{"type":"function","name":"createContent","inputs":[{"name":"cType","type":"uint8","internalType":"enum CreatorHub.ContentType"},{"name":"metadataURI","type":"string","internalType":"string"},{"name":"isFree","type":"bool","internalType":"bool"},{"name":"fullPrice","type":"uint256","internalType":"uint256"},{"name":"rentedPrice","type":"uint256","internalType":"uint256"},{"name":"paymentToken","type":"address","internalType":"address"}],"outputs":[{"name":"","type":"uint256","internalType":"uint256"}],"stateMutability":"nonpayable"},{"type":"function","name":"cret","inputs":[{"name":"","type":"address","internalType":"address"}],"outputs":[{"name":"name","type":"string","internalType":"string"},{"name":"wallet","type":"address","internalType":"address"},{"name":"isRegistered","type":"bool","internalType":"bool"},{"name":"subscriptionPrice","type":"uint256","internalType":"uint256"},{"name":"subscriberCount","type":"uint256","internalType":"uint256"},{"name":"totalEarnings","type":"uint256","internalType":"uint256"}],"stateMutability":"view"},{"type":"function","name":"getAllCreators","inputs":[],"outputs":[{"name":"","type":"tuple[]","internalType":"struct CreatorHub.Creator[]","components":[{"name":"name","type":"string","internalType":"string"},{"name":"wallet","type":"address","internalType":"address"},{"name":"isRegistered","type":"bool","internalType":"bool"},{"name":"subscriptionPrice","type":"uint256","internalType":"uint256"},{"name":"subscriberCount","type":"uint256","internalType":"uint256"},{"name":"totalEarnings","type":"uint256","internalType":"uint256"}]}],"stateMutability":"view"},{"type":"function","name":"getChannelName","inputs":[{"name":"_wallet","type":"address","internalType":"address"}],"outputs":[{"name":"","type":"string","internalType":"string"}],"stateMutability":"view"},{"type":"function","name":"getLatestContent","inputs":[{"name":"_limit","type":"uint256","internalType":"uint256"}],"outputs":[{"name":"","type":"tuple[]","internalType":"struct CreatorHub.Content[]","components":[{"name":"id","type":"uint256","internalType":"uint256"},{"name":"creatorAddress","type":"address","internalType":"address"},{"name":"cType","type":"uint8","internalType":"enum CreatorHub.ContentType"},{"name":"metadataURI","type":"string","internalType":"string"},{"name":"isFree","type":"bool","internalType":"bool"},{"name":"fullPrice","type":"uint256","internalType":"uint256"},{"name":"rentedPrice","type":"uint256","internalType":"uint256"},{"name":"paymentToken","type":"address","internalType":"address"},{"name":"active","type":"bool","internalType":"bool"}]}],"stateMutability":"view"},{"type":"function","name":"getLatestVideos","inputs":[{"name":"_limit","type":"uint256","internalType":"uint256"}],"outputs":[{"name":"","type":"tuple[]","internalType":"struct CreatorHub.Video[]","components":[{"name":"title","type":"string","internalType":"string"},{"name":"videoCID","type":"string","internalType":"string"},{"name":"thumbnailCID","type":"string","internalType":"string"},{"name":"uploader","type":"address","internalType":"address"},{"name":"timestamp","type":"uint256","internalType":"uint256"}]}],"stateMutability":"view"},{"type":"function","name":"nextContentId","inputs":[],"outputs":[{"name":"","type":"uint256","internalType":"uint256"}],"stateMutability":"view"},{"type":"function","name":"registerChannel","inputs":[{"name":"_name","type":"string","internalType":"string"}],"outputs":[],"stateMutability":"nonpayable"},{"type":"function","name":"rentContent","inputs":[{"name":"_contentId","type":"uint256","internalType":"uint256"}],"outputs":[],"stateMutability":"nonpayable"},{"type":"function","name":"rentals","inputs":[{"name":"","type":"address","internalType":"address"},{"name":"","type":"uint256","internalType":"uint256"}],"outputs":[{"name":"","type":"uint256","internalType":"uint256"}],"stateMutability":"view"},{"type":"function","name":"setContentActive","inputs":[{"name":"contentId","type":"uint256","internalType":"uint256"},{"name":"status","type":"bool","internalType":"bool"}],"outputs":[],"stateMutability":"nonpayable"},{"type":"function","name":"setSubscriptionPrice","inputs":[{"name":"_price","type":"uint256","internalType":"uint256"}],"outputs":[],"stateMutability":"nonpayable"},{"type":"function","name":"subscribe","inputs":[{"name":"_creator","type":"address","internalType":"address"}],"outputs":[],"stateMutability":"nonpayable"},{"type":"function","name":"subscriptions","inputs":[{"name":"","type":"address","internalType":"address"},{"name":"","type":"address","internalType":"address"}],"outputs":[{"name":"","type":"uint256","internalType":"uint256"}],"stateMutability":"view"},{"type":"function","name":"updateContent","inputs":[{"name":"contentId","type":"uint256","internalType":"uint256"},{"name":"cType","type":"uint8","internalType":"enum CreatorHub.ContentType"},{"name":"metadataURI","type":"string","internalType":"string"},{"name":"fullPrice","type":"uint256","internalType":"uint256"},{"name":"rentedPrice","type":"uint256","internalType":"uint256"},{"name":"paymentToken","type":"address","internalType":"address"},{"name":"isFree","type":"bool","internalType":"bool"}],"outputs":[],"stateMutability":"nonpayable"},{"type":"function","name":"uploadVideo","inputs":[{"name":"_title","type":"string","internalType":"string"},{"name":"_videoCID","type":"string","internalType":"string"},{"name":"_thumbnailCID","type":"string","internalType":"string"}],"outputs":[],"stateMutability":"nonpayable"},{"type":"function","name":"usdcToken","inputs":[],"outputs":[{"name":"","type":"address","internalType":"contract IERC20"}],"stateMutability":"view"},{"type":"event","name":"ChannelRegistered","inputs":[{"name":"wallet","type":"address","indexed":true,"internalType":"address"},{"name":"name","type":"string","indexed":false,"internalType":"string"}],"anonymous":false},{"type":"event","name":"ContentCreated","inputs":[{"name":"contentId","type":"uint256","indexed":true,"internalType":"uint256"},{"name":"creator","type":"address","indexed":true,"internalType":"address"},{"name":"metadataURI","type":"string","indexed":false,"internalType":"string"}],"anonymous":false},{"type":"event","name":"ContentRented","inputs":[{"name":"renter","type":"address","indexed":true,"internalType":"address"},{"name":"contentId","type":"uint256","indexed":true,"internalType":"uint256"},{"name":"expiry","type":"uint256","indexed":false,"internalType":"uint256"}],"anonymous":false},{"type":"event","name":"Subscribed","inputs":[{"name":"subscriber","type":"address","indexed":true,"internalType":"address"},{"name":"creator","type":"address","indexed":true,"internalType":"address"},{"name":"expiry","type":"uint256","indexed":false,"internalType":"uint256"}],"anonymous":false},{"type":"event","name":"SubscriptionPriceUpdated","inputs":[{"name":"creator","type":"address","indexed":true,"internalType":"address"},{"name":"newPrice","type":"uint256","indexed":false,"internalType":"uint256"}],"anonymous":false},{"type":"event","name":"VideoUploaded","inputs":[{"name":"videoId","type":"uint256","indexed":true,"internalType":"uint256"},{"name":"uploader","type":"address","indexed":true,"internalType":"address"},{"name":"title","type":"string","indexed":false,"internalType":"string"}],"anonymous":false}],"bytecode":{"object":"0x608060405234801561000f575f5ffd5b5060405161488a38038061488a833981810160405281019061003191906100d4565b805f5f6101000a81548173ffffffffffffffffffffffffffffffffffffffff021916908373ffffffffffffffffffffffffffffffffffffffff160217905550506100ff565b5f5ffd5b5f73ffffffffffffffffffffffffffffffffffffffff82169050919050565b5f6100a38261007a565b9050919050565b6100b381610099565b81146100bd575f5ffd5b50565b5f815190506100ce816100aa565b92915050565b5f602082840312156100e9576100e8610076565b5b5f6100f6848285016100c0565b91505092915050565b61477e8061010c5f395ff3fe608060405234801561000f575f5ffd5b506004361061014b575f3560e01c80636207d31b116100c1578063acaebbf61161007a578063acaebbf6146103e8578063b5ecf91214610418578063e457291914610450578063e5805fe014610484578063ead02347146104a0578063f97fac4d146104d05761014b565b80636207d31b146102dc5780637d556e751461030c5780637eb67c31146103285780638799bd7414610358578063888e5d9e14610388578063aba6d14b146103b85761014b565b80631a5ee779116101135780631a5ee779146102075780632881f092146102235780632d58d0ee1461025357806341a7726a1461026f5780634875e9fd1461028b5780635093ab6d146102a75761014b565b8063055b52ec1461014f578063090fc58b1461016b5780630a248d7f1461019b5780630ca6c2f4146101b957806311eac855146101e9575b5f5ffd5b61016960048036038101906101649190612dc0565b6104ee565b005b61018560048036038101906101809190612e45565b610959565b6040516101929190612e92565b60405180910390f35b6101a3610979565b6040516101b09190612e92565b60405180910390f35b6101d360048036038101906101ce9190612dc0565b61097f565b6040516101e09190612e92565b60405180910390f35b6101f161099f565b6040516101fe9190612f06565b60405180910390f35b610221600480360381019061021c9190612dc0565b6109c3565b005b61023d60048036038101906102389190612e45565b610ae6565b60405161024a9190612f39565b60405180910390f35b61026d6004803603810190610268919061308e565b610b3e565b005b610289600480360381019061028491906130d5565b610de1565b005b6102a560048036038101906102a09190613100565b6111ce565b005b6102c160048036038101906102bc91906130d5565b6113bc565b6040516102d396959493929190613213565b60405180910390f35b6102f660048036038101906102f19190613279565b6114a6565b6040516103039190612e92565b60405180910390f35b610326600480360381019061032191906132e1565b6114c6565b005b610342600480360381019061033d91906130d5565b61161d565b60405161034f919061331f565b60405180910390f35b610372600480360381019061036d9190612dc0565b61177d565b60405161037f91906134e1565b60405180910390f35b6103a2600480360381019061039d9190612dc0565b611ae7565b6040516103af9190613501565b60405180910390f35b6103d260048036038101906103cd919061353d565b611b22565b6040516103df9190612e92565b60405180910390f35b61040260048036038101906103fd9190612dc0565b611fd7565b60405161040f91906137e1565b60405180910390f35b610432600480360381019061042d9190612dc0565b61230d565b60405161044799989796959493929190613810565b60405180910390f35b61046a60048036038101906104659190612dc0565b612441565b60405161047b9594939291906138a2565b60405180910390f35b61049e60048036038101906104999190613908565b612633565b005b6104ba60048036038101906104b59190613279565b6129a3565b6040516104c79190612f39565b60405180910390f35b6104d8612a27565b6040516104e59190613b02565b60405180910390f35b5f60065f8381526020019081526020015f20604051806101200160405290815f8201548152602001600182015f9054906101000a900473ffffffffffffffffffffffffffffffffffffffff1673ffffffffffffffffffffffffffffffffffffffff1673ffffffffffffffffffffffffffffffffffffffff1681526020016001820160149054906101000a900460ff16600581111561058f5761058e61360b565b5b60058111156105a1576105a061360b565b5b81526020016002820180546105b590613b4f565b80601f01602080910402602001604051908101604052809291908181526020018280546105e190613b4f565b801561062c5780601f106106035761010080835404028352916020019161062c565b820191905f5260205f20905b81548152906001019060200180831161060f57829003601f168201915b50505050508152602001600382015f9054906101000a900460ff161515151581526020016004820154815260200160058201548152602001600682015f9054906101000a900473ffffffffffffffffffffffffffffffffffffffff1673ffffffffffffffffffffffffffffffffffffffff1673ffffffffffffffffffffffffffffffffffffffff1681526020016006820160149054906101000a900460ff161515151581525050905080610100015161071a576040517f08c379a000000000000000000000000000000000000000000000000000000000815260040161071190613bc9565b60405180910390fd5b5f8160c0015111610760576040517f08c379a000000000000000000000000000000000000000000000000000000000815260040161075790613c31565b60405180910390fd5b5f62015180426107709190613c7c565b90508060035f3373ffffffffffffffffffffffffffffffffffffffff1673ffffffffffffffffffffffffffffffffffffffff1681526020019081526020015f205f8581526020019081526020015f20819055505f5f9054906101000a900473ffffffffffffffffffffffffffffffffffffffff1673ffffffffffffffffffffffffffffffffffffffff166323b872dd3384602001518560c001516040518463ffffffff1660e01b815260040161082893929190613caf565b6020604051808303815f875af1158015610844573d5f5f3e3d5ffd5b505050506040513d601f19601f820116820180604052508101906108689190613cf8565b6108a7576040517f08c379a000000000000000000000000000000000000000000000000000000000815260040161089e90613d6d565b60405180910390fd5b8160c0015160015f846020015173ffffffffffffffffffffffffffffffffffffffff1673ffffffffffffffffffffffffffffffffffffffff1681526020019081526020015f206004015f8282546108fe9190613c7c565b92505081905550823373ffffffffffffffffffffffffffffffffffffffff167f911cffde7f97da1028a296f1650c29ea2ff658aeffaefd8f401ff640f81871258360405161094c9190612e92565b60405180910390a3505050565b6003602052815f5260405f20602052805f5260405f205f91509150505481565b60055481565b6007818154811061098e575f80fd5b905f5260205f20015f915090505481565b5f5f9054906101000a900473ffffffffffffffffffffffffffffffffffffffff1681565b60015f3373ffffffffffffffffffffffffffffffffffffffff1673ffffffffffffffffffffffffffffffffffffffff1681526020019081526020015f2060010160149054906101000a900460ff16610a50576040517f08c379a0000000000000000000000000000000000000000000000000000000008152600401610a4790613dd5565b60405180910390fd5b8060015f3373ffffffffffffffffffffffffffffffffffffffff1673ffffffffffffffffffffffffffffffffffffffff1681526020019081526020015f20600201819055503373ffffffffffffffffffffffffffffffffffffffff167fb7f535c0f6a33f444bce1a5c432bbeef81b30471d8b193828baf43ef2b18708382604051610adb9190612e92565b60405180910390a250565b5f4260035f8573ffffffffffffffffffffffffffffffffffffffff1673ffffffffffffffffffffffffffffffffffffffff1681526020019081526020015f205f8481526020019081526020015f205411905092915050565b5f815111610b81576040517f08c379a0000000000000000000000000000000000000000000000000000000008152600401610b7890613e3d565b60405180910390fd5b60015f3373ffffffffffffffffffffffffffffffffffffffff1673ffffffffffffffffffffffffffffffffffffffff1681526020019081526020015f2060010160149054906101000a900460ff1615610c0f576040517f08c379a0000000000000000000000000000000000000000000000000000000008152600401610c0690613ea5565b60405180910390fd5b6040518060c001604052808281526020013373ffffffffffffffffffffffffffffffffffffffff168152602001600115158152602001624c4b4081526020015f81526020015f81525060015f3373ffffffffffffffffffffffffffffffffffffffff1673ffffffffffffffffffffffffffffffffffffffff1681526020019081526020015f205f820151815f019081610ca8919061405a565b506020820151816001015f6101000a81548173ffffffffffffffffffffffffffffffffffffffff021916908373ffffffffffffffffffffffffffffffffffffffff16021790555060408201518160010160146101000a81548160ff021916908315150217905550606082015181600201556080820151816003015560a08201518160040155905050600833908060018154018082558091505060019003905f5260205f20015f9091909190916101000a81548173ffffffffffffffffffffffffffffffffffffffff021916908373ffffffffffffffffffffffffffffffffffffffff1602179055503373ffffffffffffffffffffffffffffffffffffffff167f276ae62e19d992282d28a4512c2330337f38c431d6cb0a190266eb7899ffb14b82604051610dd6919061331f565b60405180910390a250565b60015f8273ffffffffffffffffffffffffffffffffffffffff1673ffffffffffffffffffffffffffffffffffffffff1681526020019081526020015f2060010160149054906101000a900460ff16610e6e576040517f08c379a0000000000000000000000000000000000000000000000000000000008152600401610e6590614173565b60405180910390fd5b5f60015f8373ffffffffffffffffffffffffffffffffffffffff1673ffffffffffffffffffffffffffffffffffffffff1681526020019081526020015f206002015490505f60025f3373ffffffffffffffffffffffffffffffffffffffff1673ffffffffffffffffffffffffffffffffffffffff1681526020019081526020015f205f8473ffffffffffffffffffffffffffffffffffffffff1673ffffffffffffffffffffffffffffffffffffffff1681526020019081526020015f205490505f42821115610f4d5762278d0082610f469190613c7c565b9050610f5f565b62278d0042610f5c9190613c7c565b90505b8060025f3373ffffffffffffffffffffffffffffffffffffffff1673ffffffffffffffffffffffffffffffffffffffff1681526020019081526020015f205f8673ffffffffffffffffffffffffffffffffffffffff1673ffffffffffffffffffffffffffffffffffffffff1681526020019081526020015f20819055505f5f9054906101000a900473ffffffffffffffffffffffffffffffffffffffff1673ffffffffffffffffffffffffffffffffffffffff166323b872dd3386866040518463ffffffff1660e01b815260040161103993929190613caf565b6020604051808303815f875af1158015611055573d5f5f3e3d5ffd5b505050506040513d601f19601f820116820180604052508101906110799190613cf8565b6110b8576040517f08c379a00000000000000000000000000000000000000000000000000000000081526004016110af90613d6d565b60405180910390fd5b60015f8573ffffffffffffffffffffffffffffffffffffffff1673ffffffffffffffffffffffffffffffffffffffff1681526020019081526020015f206003015f81548092919061110890614191565b91905055508260015f8673ffffffffffffffffffffffffffffffffffffffff1673ffffffffffffffffffffffffffffffffffffffff1681526020019081526020015f206004015f82825461115c9190613c7c565b925050819055508373ffffffffffffffffffffffffffffffffffffffff163373ffffffffffffffffffffffffffffffffffffffff167f1299b0ad0a8e7c2403716ae6507195ba96bd8cac7f49d8c129e18f9ae51374f0836040516111c09190612e92565b60405180910390a350505050565b60015f3373ffffffffffffffffffffffffffffffffffffffff1673ffffffffffffffffffffffffffffffffffffffff1681526020019081526020015f2060010160149054906101000a900460ff1661125b576040517f08c379a000000000000000000000000000000000000000000000000000000000815260040161125290614222565b60405180910390fd5b5f6040518060a001604052808581526020018481526020018381526020013373ffffffffffffffffffffffffffffffffffffffff168152602001428152509050600481908060018154018082558091505060019003905f5260205f2090600502015f909190919091505f820151815f0190816112d7919061405a565b5060208201518160010190816112ed919061405a565b506040820151816002019081611303919061405a565b506060820151816003015f6101000a81548173ffffffffffffffffffffffffffffffffffffffff021916908373ffffffffffffffffffffffffffffffffffffffff1602179055506080820151816004015550503373ffffffffffffffffffffffffffffffffffffffff16600160048054905061137f9190614240565b7f914131121ce37b9b876b9e7ff21f008ec2799db04096a542b4b7e67f80af1d13866040516113ae919061331f565b60405180910390a350505050565b6001602052805f5260405f205f91509050805f0180546113db90613b4f565b80601f016020809104026020016040519081016040528092919081815260200182805461140790613b4f565b80156114525780601f1061142957610100808354040283529160200191611452565b820191905f5260205f20905b81548152906001019060200180831161143557829003601f168201915b505050505090806001015f9054906101000a900473ffffffffffffffffffffffffffffffffffffffff16908060010160149054906101000a900460ff16908060020154908060030154908060040154905086565b6002602052815f5260405f20602052805f5260405f205f91509150505481565b5f60065f8481526020019081526020015f2090505f73ffffffffffffffffffffffffffffffffffffffff16816001015f9054906101000a900473ffffffffffffffffffffffffffffffffffffffff1673ffffffffffffffffffffffffffffffffffffffff160361156b576040517f08c379a0000000000000000000000000000000000000000000000000000000008152600401611562906142bd565b60405180910390fd5b3373ffffffffffffffffffffffffffffffffffffffff16816001015f9054906101000a900473ffffffffffffffffffffffffffffffffffffffff1673ffffffffffffffffffffffffffffffffffffffff16146115fc576040517f08c379a00000000000000000000000000000000000000000000000000000000081526004016115f39061434b565b60405180910390fd5b818160060160146101000a81548160ff021916908315150217905550505050565b606060015f8373ffffffffffffffffffffffffffffffffffffffff1673ffffffffffffffffffffffffffffffffffffffff1681526020019081526020015f2060010160149054906101000a900460ff161561173f5760015f8373ffffffffffffffffffffffffffffffffffffffff1673ffffffffffffffffffffffffffffffffffffffff1681526020019081526020015f205f0180546116bc90613b4f565b80601f01602080910402602001604051908101604052809291908181526020018280546116e890613b4f565b80156117335780601f1061170a57610100808354040283529160200191611733565b820191905f5260205f20905b81548152906001019060200180831161171657829003601f168201915b50505050509050611778565b6040518060400160405280600f81526020017f556e6b6e6f776e204368616e6e656c000000000000000000000000000000000081525090505b919050565b60605f60048054905090505f81036117eb575f67ffffffffffffffff8111156117a9576117a8612f6a565b5b6040519080825280602002602001820160405280156117e257816020015b6117cf612c6a565b8152602001906001900390816117c75790505b50915050611ae2565b5f839050818111156117fb578190505b5f8167ffffffffffffffff81111561181657611815612f6a565b5b60405190808252806020026020018201604052801561184f57816020015b61183c612c6a565b8152602001906001900390816118345790505b5090505f5f90505b82811015611ada5760048160018661186f9190614240565b6118799190614240565b8154811061188a57611889614369565b5b905f5260205f2090600502016040518060a00160405290815f820180546118b090613b4f565b80601f01602080910402602001604051908101604052809291908181526020018280546118dc90613b4f565b80156119275780601f106118fe57610100808354040283529160200191611927565b820191905f5260205f20905b81548152906001019060200180831161190a57829003601f168201915b5050505050815260200160018201805461194090613b4f565b80601f016020809104026020016040519081016040528092919081815260200182805461196c90613b4f565b80156119b75780601f1061198e576101008083540402835291602001916119b7565b820191905f5260205f20905b81548152906001019060200180831161199a57829003601f168201915b505050505081526020016002820180546119d090613b4f565b80601f01602080910402602001604051908101604052809291908181526020018280546119fc90613b4f565b8015611a475780601f10611a1e57610100808354040283529160200191611a47565b820191905f5260205f20905b815481529060010190602001808311611a2a57829003601f168201915b50505050508152602001600382015f9054906101000a900473ffffffffffffffffffffffffffffffffffffffff1673ffffffffffffffffffffffffffffffffffffffff1673ffffffffffffffffffffffffffffffffffffffff168152602001600482015481525050828281518110611ac257611ac1614369565b5b60200260200101819052508080600101915050611857565b508093505050505b919050565b60088181548110611af6575f80fd5b905f5260205f20015f915054906101000a900473ffffffffffffffffffffffffffffffffffffffff1681565b5f60015f3373ffffffffffffffffffffffffffffffffffffffff1673ffffffffffffffffffffffffffffffffffffffff1681526020019081526020015f2060010160149054906101000a900460ff16611bb0576040517f08c379a0000000000000000000000000000000000000000000000000000000008152600401611ba790614406565b60405180910390fd5b5f865111611bf3576040517f08c379a0000000000000000000000000000000000000000000000000000000008152600401611bea9061446e565b60405180910390fd5b8415611c82575f8414611c3b576040517f08c379a0000000000000000000000000000000000000000000000000000000008152600401611c32906144d6565b60405180910390fd5b5f8314611c7d576040517f08c379a0000000000000000000000000000000000000000000000000000000008152600401611c7490614564565b60405180910390fd5b611d76565b5f73ffffffffffffffffffffffffffffffffffffffff168273ffffffffffffffffffffffffffffffffffffffff1603611cf0576040517f08c379a0000000000000000000000000000000000000000000000000000000008152600401611ce7906145cc565b60405180910390fd5b5f8311611d32576040517f08c379a0000000000000000000000000000000000000000000000000000000008152600401611d2990614634565b60405180910390fd5b82841015611d75576040517f08c379a0000000000000000000000000000000000000000000000000000000008152600401611d6c9061469c565b60405180910390fd5b5b5f60055f815480929190611d8990614191565b919050559050600781908060018154018082558091505060019003905f5260205f20015f90919091909150556040518061012001604052808281526020013373ffffffffffffffffffffffffffffffffffffffff168152602001896005811115611df657611df561360b565b5b815260200188815260200187151581526020018681526020018581526020018473ffffffffffffffffffffffffffffffffffffffff1681526020016001151581525060065f8381526020019081526020015f205f820151815f01556020820151816001015f6101000a81548173ffffffffffffffffffffffffffffffffffffffff021916908373ffffffffffffffffffffffffffffffffffffffff16021790555060408201518160010160146101000a81548160ff02191690836005811115611ec257611ec161360b565b5b02179055506060820151816002019081611edc919061405a565b506080820151816003015f6101000a81548160ff02191690831515021790555060a0820151816004015560c0820151816005015560e0820151816006015f6101000a81548173ffffffffffffffffffffffffffffffffffffffff021916908373ffffffffffffffffffffffffffffffffffffffff1602179055506101008201518160060160146101000a81548160ff0219169083151502179055509050503373ffffffffffffffffffffffffffffffffffffffff16817fbacf9f620fd10df5b39931f2a3012e753be545aba5d7642b9bdb59b527709f1d89604051611fc1919061331f565b60405180910390a3809150509695505050505050565b60605f60078054905090505f8103612045575f67ffffffffffffffff81111561200357612002612f6a565b5b60405190808252806020026020018201604052801561203c57816020015b612029612cad565b8152602001906001900390816120215790505b50915050612308565b5f83905081811115612055578190505b5f8167ffffffffffffffff8111156120705761206f612f6a565b5b6040519080825280602002602001820160405280156120a957816020015b612096612cad565b81526020019060019003908161208e5790505b5090505f5f90505b82811015612300575f6007826001876120ca9190614240565b6120d49190614240565b815481106120e5576120e4614369565b5b905f5260205f200154905060065f8281526020019081526020015f20604051806101200160405290815f8201548152602001600182015f9054906101000a900473ffffffffffffffffffffffffffffffffffffffff1673ffffffffffffffffffffffffffffffffffffffff1673ffffffffffffffffffffffffffffffffffffffff1681526020016001820160149054906101000a900460ff1660058111156121905761218f61360b565b5b60058111156121a2576121a161360b565b5b81526020016002820180546121b690613b4f565b80601f01602080910402602001604051908101604052809291908181526020018280546121e290613b4f565b801561222d5780601f106122045761010080835404028352916020019161222d565b820191905f5260205f20905b81548152906001019060200180831161221057829003601f168201915b50505050508152602001600382015f9054906101000a900460ff161515151581526020016004820154815260200160058201548152602001600682015f9054906101000a900473ffffffffffffffffffffffffffffffffffffffff1673ffffffffffffffffffffffffffffffffffffffff1673ffffffffffffffffffffffffffffffffffffffff1681526020016006820160149054906101000a900460ff1615151515815250508383815181106122e7576122e6614369565b5b60200260200101819052505080806001019150506120b1565b508093505050505b919050565b6006602052805f5260405f205f91509050805f015490806001015f9054906101000a900473ffffffffffffffffffffffffffffffffffffffff16908060010160149054906101000a900460ff169080600201805461236a90613b4f565b80601f016020809104026020016040519081016040528092919081815260200182805461239690613b4f565b80156123e15780601f106123b8576101008083540402835291602001916123e1565b820191905f5260205f20905b8154815290600101906020018083116123c457829003601f168201915b505050505090806003015f9054906101000a900460ff1690806004015490806005015490806006015f9054906101000a900473ffffffffffffffffffffffffffffffffffffffff16908060060160149054906101000a900460ff16905089565b60048181548110612450575f80fd5b905f5260205f2090600502015f91509050805f01805461246f90613b4f565b80601f016020809104026020016040519081016040528092919081815260200182805461249b90613b4f565b80156124e65780601f106124bd576101008083540402835291602001916124e6565b820191905f5260205f20905b8154815290600101906020018083116124c957829003601f168201915b5050505050908060010180546124fb90613b4f565b80601f016020809104026020016040519081016040528092919081815260200182805461252790613b4f565b80156125725780601f1061254957610100808354040283529160200191612572565b820191905f5260205f20905b81548152906001019060200180831161255557829003601f168201915b50505050509080600201805461258790613b4f565b80601f01602080910402602001604051908101604052809291908181526020018280546125b390613b4f565b80156125fe5780601f106125d5576101008083540402835291602001916125fe565b820191905f5260205f20905b8154815290600101906020018083116125e157829003601f168201915b505050505090806003015f9054906101000a900473ffffffffffffffffffffffffffffffffffffffff16908060040154905085565b5f60065f8981526020019081526020015f2090505f73ffffffffffffffffffffffffffffffffffffffff16816001015f9054906101000a900473ffffffffffffffffffffffffffffffffffffffff1673ffffffffffffffffffffffffffffffffffffffff16036126d8576040517f08c379a00000000000000000000000000000000000000000000000000000000081526004016126cf906142bd565b60405180910390fd5b3373ffffffffffffffffffffffffffffffffffffffff16816001015f9054906101000a900473ffffffffffffffffffffffffffffffffffffffff1673ffffffffffffffffffffffffffffffffffffffff1614612769576040517f08c379a00000000000000000000000000000000000000000000000000000000081526004016127609061472a565b60405180910390fd5b81156127f8575f85146127b1576040517f08c379a00000000000000000000000000000000000000000000000000000000081526004016127a8906144d6565b60405180910390fd5b5f84146127f3576040517f08c379a00000000000000000000000000000000000000000000000000000000081526004016127ea90614564565b60405180910390fd5b6128ec565b5f73ffffffffffffffffffffffffffffffffffffffff168373ffffffffffffffffffffffffffffffffffffffff1603612866576040517f08c379a000000000000000000000000000000000000000000000000000000000815260040161285d906145cc565b60405180910390fd5b5f84116128a8576040517f08c379a000000000000000000000000000000000000000000000000000000000815260040161289f90614634565b60405180910390fd5b838510156128eb576040517f08c379a00000000000000000000000000000000000000000000000000000000081526004016128e29061469c565b60405180910390fd5b5b868160010160146101000a81548160ff021916908360058111156129135761291261360b565b5b021790555085816002019081612929919061405a565b5081816003015f6101000a81548160ff02191690831515021790555084816004018190555083816005018190555082816006015f6101000a81548173ffffffffffffffffffffffffffffffffffffffff021916908373ffffffffffffffffffffffffffffffffffffffff1602179055505050505050505050565b5f4260025f8573ffffffffffffffffffffffffffffffffffffffff1673ffffffffffffffffffffffffffffffffffffffff1681526020019081526020015f205f8473ffffffffffffffffffffffffffffffffffffffff1673ffffffffffffffffffffffffffffffffffffffff1681526020019081526020015f205411905092915050565b60605f60088054905090505f8167ffffffffffffffff811115612a4d57612a4c612f6a565b5b604051908082528060200260200182016040528015612a8657816020015b612a73612d33565b815260200190600190039081612a6b5790505b5090505f5f90505b82811015612c615760015f60088381548110612aad57612aac614369565b5b905f5260205f20015f9054906101000a900473ffffffffffffffffffffffffffffffffffffffff1673ffffffffffffffffffffffffffffffffffffffff1673ffffffffffffffffffffffffffffffffffffffff1681526020019081526020015f206040518060c00160405290815f82018054612b2890613b4f565b80601f0160208091040260200160405190810160405280929190818152602001828054612b5490613b4f565b8015612b9f5780601f10612b7657610100808354040283529160200191612b9f565b820191905f5260205f20905b815481529060010190602001808311612b8257829003601f168201915b50505050508152602001600182015f9054906101000a900473ffffffffffffffffffffffffffffffffffffffff1673ffffffffffffffffffffffffffffffffffffffff1673ffffffffffffffffffffffffffffffffffffffff1681526020016001820160149054906101000a900460ff161515151581526020016002820154815260200160038201548152602001600482015481525050828281518110612c4957612c48614369565b5b60200260200101819052508080600101915050612a8e565b50809250505090565b6040518060a001604052806060815260200160608152602001606081526020015f73ffffffffffffffffffffffffffffffffffffffff1681526020015f81525090565b6040518061012001604052805f81526020015f73ffffffffffffffffffffffffffffffffffffffff1681526020015f6005811115612cee57612ced61360b565b5b8152602001606081526020015f151581526020015f81526020015f81526020015f73ffffffffffffffffffffffffffffffffffffffff1681526020015f151581525090565b6040518060c00160405280606081526020015f73ffffffffffffffffffffffffffffffffffffffff1681526020015f151581526020015f81526020015f81526020015f81525090565b5f604051905090565b5f5ffd5b5f5ffd5b5f819050919050565b612d9f81612d8d565b8114612da9575f5ffd5b50565b5f81359050612dba81612d96565b92915050565b5f60208284031215612dd557612dd4612d85565b5b5f612de284828501612dac565b91505092915050565b5f73ffffffffffffffffffffffffffffffffffffffff82169050919050565b5f612e1482612deb565b9050919050565b612e2481612e0a565b8114612e2e575f5ffd5b50565b5f81359050612e3f81612e1b565b92915050565b5f5f60408385031215612e5b57612e5a612d85565b5b5f612e6885828601612e31565b9250506020612e7985828601612dac565b9150509250929050565b612e8c81612d8d565b82525050565b5f602082019050612ea55f830184612e83565b92915050565b5f819050919050565b5f612ece612ec9612ec484612deb565b612eab565b612deb565b9050919050565b5f612edf82612eb4565b9050919050565b5f612ef082612ed5565b9050919050565b612f0081612ee6565b82525050565b5f602082019050612f195f830184612ef7565b92915050565b5f8115159050919050565b612f3381612f1f565b82525050565b5f602082019050612f4c5f830184612f2a565b92915050565b5f5ffd5b5f5ffd5b5f601f19601f8301169050919050565b7f4e487b71000000000000000000000000000000000000000000000000000000005f52604160045260245ffd5b612fa082612f5a565b810181811067ffffffffffffffff82111715612fbf57612fbe612f6a565b5b80604052505050565b5f612fd1612d7c565b9050612fdd8282612f97565b919050565b5f67ffffffffffffffff821115612ffc57612ffb612f6a565b5b61300582612f5a565b9050602081019050919050565b828183375f83830152505050565b5f61303261302d84612fe2565b612fc8565b90508281526020810184848401111561304e5761304d612f56565b5b613059848285613012565b509392505050565b5f82601f83011261307557613074612f52565b5b8135613085848260208601613020565b91505092915050565b5f602082840312156130a3576130a2612d85565b5b5f82013567ffffffffffffffff8111156130c0576130bf612d89565b5b6130cc84828501613061565b91505092915050565b5f602082840312156130ea576130e9612d85565b5b5f6130f784828501612e31565b91505092915050565b5f5f5f6060848603121561311757613116612d85565b5b5f84013567ffffffffffffffff81111561313457613133612d89565b5b61314086828701613061565b935050602084013567ffffffffffffffff81111561316157613160612d89565b5b61316d86828701613061565b925050604084013567ffffffffffffffff81111561318e5761318d612d89565b5b61319a86828701613061565b9150509250925092565b5f81519050919050565b5f82825260208201905092915050565b8281835e5f83830152505050565b5f6131d6826131a4565b6131e081856131ae565b93506131f08185602086016131be565b6131f981612f5a565b840191505092915050565b61320d81612e0a565b82525050565b5f60c0820190508181035f83015261322b81896131cc565b905061323a6020830188613204565b6132476040830187612f2a565b6132546060830186612e83565b6132616080830185612e83565b61326e60a0830184612e83565b979650505050505050565b5f5f6040838503121561328f5761328e612d85565b5b5f61329c85828601612e31565b92505060206132ad85828601612e31565b9150509250929050565b6132c081612f1f565b81146132ca575f5ffd5b50565b5f813590506132db816132b7565b92915050565b5f5f604083850312156132f7576132f6612d85565b5b5f61330485828601612dac565b9250506020613315858286016132cd565b9150509250929050565b5f6020820190508181035f83015261333781846131cc565b905092915050565b5f81519050919050565b5f82825260208201905092915050565b5f819050602082019050919050565b5f82825260208201905092915050565b5f613382826131a4565b61338c8185613368565b935061339c8185602086016131be565b6133a581612f5a565b840191505092915050565b6133b981612e0a565b82525050565b6133c881612d8d565b82525050565b5f60a083015f8301518482035f8601526133e88282613378565b915050602083015184820360208601526134028282613378565b9150506040830151848203604086015261341c8282613378565b915050606083015161343160608601826133b0565b50608083015161344460808601826133bf565b508091505092915050565b5f61345a83836133ce565b905092915050565b5f602082019050919050565b5f6134788261333f565b6134828185613349565b93508360208202850161349485613359565b805f5b858110156134cf57848403895281516134b0858261344f565b94506134bb83613462565b925060208a01995050600181019050613497565b50829750879550505050505092915050565b5f6020820190508181035f8301526134f9818461346e565b905092915050565b5f6020820190506135145f830184613204565b92915050565b60068110613526575f5ffd5b50565b5f813590506135378161351a565b92915050565b5f5f5f5f5f5f60c0878903121561355757613556612d85565b5b5f61356489828a01613529565b965050602087013567ffffffffffffffff81111561358557613584612d89565b5b61359189828a01613061565b95505060406135a289828a016132cd565b94505060606135b389828a01612dac565b93505060806135c489828a01612dac565b92505060a06135d589828a01612e31565b9150509295509295509295565b5f81519050919050565b5f82825260208201905092915050565b5f819050602082019050919050565b7f4e487b71000000000000000000000000000000000000000000000000000000005f52602160045260245ffd5b600681106136495761364861360b565b5b50565b5f81905061365982613638565b919050565b5f6136688261364c565b9050919050565b6136788161365e565b82525050565b61368781612f1f565b82525050565b5f61012083015f8301516136a35f8601826133bf565b5060208301516136b660208601826133b0565b5060408301516136c9604086018261366f565b50606083015184820360608601526136e18282613378565b91505060808301516136f6608086018261367e565b5060a083015161370960a08601826133bf565b5060c083015161371c60c08601826133bf565b5060e083015161372f60e08601826133b0565b5061010083015161374461010086018261367e565b508091505092915050565b5f61375a838361368d565b905092915050565b5f602082019050919050565b5f613778826135e2565b61378281856135ec565b935083602082028501613794856135fc565b805f5b858110156137cf57848403895281516137b0858261374f565b94506137bb83613762565b925060208a01995050600181019050613797565b50829750879550505050505092915050565b5f6020820190508181035f8301526137f9818461376e565b905092915050565b61380a8161365e565b82525050565b5f610120820190506138245f83018c612e83565b613831602083018b613204565b61383e604083018a613801565b818103606083015261385081896131cc565b905061385f6080830188612f2a565b61386c60a0830187612e83565b61387960c0830186612e83565b61388660e0830185613204565b613894610100830184612f2a565b9a9950505050505050505050565b5f60a0820190508181035f8301526138ba81886131cc565b905081810360208301526138ce81876131cc565b905081810360408301526138e281866131cc565b90506138f16060830185613204565b6138fe6080830184612e83565b9695505050505050565b5f5f5f5f5f5f5f60e0888a03121561392357613922612d85565b5b5f6139308a828b01612dac565b97505060206139418a828b01613529565b965050604088013567ffffffffffffffff81111561396257613961612d89565b5b61396e8a828b01613061565b955050606061397f8a828b01612dac565b94505060806139908a828b01612dac565b93505060a06139a18a828b01612e31565b92505060c06139b28a828b016132cd565b91505092959891949750929550565b5f81519050919050565b5f82825260208201905092915050565b5f819050602082019050919050565b5f60c083015f8301518482035f860152613a048282613378565b9150506020830151613a1960208601826133b0565b506040830151613a2c604086018261367e565b506060830151613a3f60608601826133bf565b506080830151613a5260808601826133bf565b5060a0830151613a6560a08601826133bf565b508091505092915050565b5f613a7b83836139ea565b905092915050565b5f602082019050919050565b5f613a99826139c1565b613aa381856139cb565b935083602082028501613ab5856139db565b805f5b85811015613af05784840389528151613ad18582613a70565b9450613adc83613a83565b925060208a01995050600181019050613ab8565b50829750879550505050505092915050565b5f6020820190508181035f830152613b1a8184613a8f565b905092915050565b7f4e487b71000000000000000000000000000000000000000000000000000000005f52602260045260245ffd5b5f6002820490506001821680613b6657607f821691505b602082108103613b7957613b78613b22565b5b50919050565b7f436f6e74656e74206e6f742061637469766500000000000000000000000000005f82015250565b5f613bb36012836131ae565b9150613bbe82613b7f565b602082019050919050565b5f6020820190508181035f830152613be081613ba7565b9050919050565b7f436f6e74656e74206e6f7420666f722072656e740000000000000000000000005f82015250565b5f613c1b6014836131ae565b9150613c2682613be7565b602082019050919050565b5f6020820190508181035f830152613c4881613c0f565b9050919050565b7f4e487b71000000000000000000000000000000000000000000000000000000005f52601160045260245ffd5b5f613c8682612d8d565b9150613c9183612d8d565b9250828201905080821115613ca957613ca8613c4f565b5b92915050565b5f606082019050613cc25f830186613204565b613ccf6020830185613204565b613cdc6040830184612e83565b949350505050565b5f81519050613cf2816132b7565b92915050565b5f60208284031215613d0d57613d0c612d85565b5b5f613d1a84828501613ce4565b91505092915050565b7f55534443207472616e73666572206661696c65640000000000000000000000005f82015250565b5f613d576014836131ae565b9150613d6282613d23565b602082019050919050565b5f6020820190508181035f830152613d8481613d4b565b9050919050565b7f4e6f7420726567697374657265640000000000000000000000000000000000005f82015250565b5f613dbf600e836131ae565b9150613dca82613d8b565b602082019050919050565b5f6020820190508181035f830152613dec81613db3565b9050919050565b7f4e616d65207265717569726564000000000000000000000000000000000000005f82015250565b5f613e27600d836131ae565b9150613e3282613df3565b602082019050919050565b5f6020820190508181035f830152613e5481613e1b565b9050919050565b7f416c7265616479207265676973746572656400000000000000000000000000005f82015250565b5f613e8f6012836131ae565b9150613e9a82613e5b565b602082019050919050565b5f6020820190508181035f830152613ebc81613e83565b9050919050565b5f819050815f5260205f209050919050565b5f6020601f8301049050919050565b5f82821b905092915050565b5f60088302613f1f7fffffffffffffffffffffffffffffffffffffffffffffffffffffffffffffffff82613ee4565b613f298683613ee4565b95508019841693508086168417925050509392505050565b5f613f5b613f56613f5184612d8d565b612eab565b612d8d565b9050919050565b5f819050919050565b613f7483613f41565b613f88613f8082613f62565b848454613ef0565b825550505050565b5f5f905090565b613f9f613f90565b613faa818484613f6b565b505050565b5b81811015613fcd57613fc25f82613f97565b600181019050613fb0565b5050565b601f82111561401257613fe381613ec3565b613fec84613ed5565b81016020851015613ffb578190505b61400f61400785613ed5565b830182613faf565b50505b505050565b5f82821c905092915050565b5f6140325f1984600802614017565b1980831691505092915050565b5f61404a8383614023565b9150826002028217905092915050565b614063826131a4565b67ffffffffffffffff81111561407c5761407b612f6a565b5b6140868254613b4f565b614091828285613fd1565b5f60209050601f8311600181146140c2575f84156140b0578287015190505b6140ba858261403f565b865550614121565b601f1984166140d086613ec3565b5f5b828110156140f7578489015182556001820191506020850194506020810190506140d2565b868310156141145784890151614110601f891682614023565b8355505b6001600288020188555050505b505050505050565b7f43726561746f72206e6f742072656769737465726564000000000000000000005f82015250565b5f61415d6016836131ae565b915061416882614129565b602082019050919050565b5f6020820190508181035f83015261418a81614151565b9050919050565b5f61419b82612d8d565b91507fffffffffffffffffffffffffffffffffffffffffffffffffffffffffffffffff82036141cd576141cc613c4f565b5b600182019050919050565b7f4d757374207265676973746572206368616e6e656c20666972737400000000005f82015250565b5f61420c601b836131ae565b9150614217826141d8565b602082019050919050565b5f6020820190508181035f83015261423981614200565b9050919050565b5f61424a82612d8d565b915061425583612d8d565b925082820390508181111561426d5761426c613c4f565b5b92915050565b7f436f6e74656e7420646f6573206e6f74206578697374000000000000000000005f82015250565b5f6142a76016836131ae565b91506142b282614273565b602082019050919050565b5f6020820190508181035f8301526142d48161429b565b9050919050565b7f4f6e6c792074686520636f6e74656e742063726561746f722063616e207570645f8201527f6174652069747320737461747573000000000000000000000000000000000000602082015250565b5f614335602e836131ae565b9150614340826142db565b604082019050919050565b5f6020820190508181035f83015261436281614329565b9050919050565b7f4e487b71000000000000000000000000000000000000000000000000000000005f52603260045260245ffd5b7f4f6e6c7920726567697374657265642063726561746f72732063616e206372655f8201527f61746520636f6e74656e74000000000000000000000000000000000000000000602082015250565b5f6143f0602b836131ae565b91506143fb82614396565b604082019050919050565b5f6020820190508181035f83015261441d816143e4565b9050919050565b7f496e76616c6964206d65746164617461555249000000000000000000000000005f82015250565b5f6144586013836131ae565b915061446382614424565b602082019050919050565b5f6020820190508181035f8301526144858161444c565b9050919050565b7f4672656520636f6e74656e742066756c6c5072696365206d75737420626520305f82015250565b5f6144c06020836131ae565b91506144cb8261448c565b602082019050919050565b5f6020820190508181035f8301526144ed816144b4565b9050919050565b7f4672656520636f6e74656e742072656e7465645072696365206d7573742062655f8201527f2030000000000000000000000000000000000000000000000000000000000000602082015250565b5f61454e6022836131ae565b9150614559826144f4565b604082019050919050565b5f6020820190508181035f83015261457b81614542565b9050919050565b7f5061796d656e7420746f6b656e207265717569726564000000000000000000005f82015250565b5f6145b66016836131ae565b91506145c182614582565b602082019050919050565b5f6020820190508181035f8301526145e3816145aa565b9050919050565b7f72656e7465645072696365206d757374206265203e20300000000000000000005f82015250565b5f61461e6017836131ae565b9150614629826145ea565b602082019050919050565b5f6020820190508181035f83015261464b81614612565b9050919050565b7f66756c6c5072696365206d757374206265203e3d2072656e74656450726963655f82015250565b5f6146866020836131ae565b915061469182614652565b602082019050919050565b5f6020820190508181035f8301526146b38161467a565b9050919050565b7f4f6e6c792074686520636f6e74656e742063726561746f722063616e207570645f8201527f6174650000000000000000000000000000000000000000000000000000000000602082015250565b5f6147146023836131ae565b915061471f826146ba565b604082019050919050565b5f6020820190508181035f83015261474181614708565b905091905056fea26469706673582212206cd3d9804673871e6f6a6e2223d7185168f889c8ad9d0a3bf194668aff5cdd0764736f6c634300081e0033","linkReferences":{}},"methodIdentifiers":{"allContentIds(uint256)":"0ca6c2f4","allCreators(uint256)":"888e5d9e","allVideos(uint256)":"e4572919","checkRental(address,uint256)":"2881f092","checkSubscription(address,address)":"ead02347","contents(uint256)":"b5ecf912","createContent(uint8,string,bool,uint256,uint256,address)":"aba6d14b","cret(address)":"5093ab6d","getAllCreators()":"f97fac4d","getChannelName(address)":"7eb67c31","getLatestContent(uint256)":"acaebbf6","getLatestVideos(uint256)":"8799bd74","nextContentId()":"0a248d7f","registerChannel(string)":"2d58d0ee","rentContent(uint256)":"055b52ec","rentals(address,uint256)":"090fc58b","setContentActive(uint256,bool)":"7d556e75","setSubscriptionPrice(uint256)":"1a5ee779","subscribe(address)":"41a7726a","subscriptions(address,address)":"6207d31b","updateContent(uint256,uint8,string,uint256,uint256,address,bool)":"e5805fe0","uploadVideo(string,string,string)":"4875e9fd","usdcToken()":"11eac855"},"id":16}